:020000040800F2
:1000000000500020FD110008A1220008A9220008CC
:10001000F9110008AB220008AD2200080000000022
:10002000000000000000000000000000AF220008F7
:10003000B122000800000000B3220008B522000829
:10004000F9110008F9110008F9110008F911000868
:10005000F9110008F9110008F9110008F911000858
:10006000F9110008F9110008F9110008F911000848
:10007000F9110008F9110008F9110008F911000838
:10008000F9110008F9110008F9110008000000003A
:10009000000000000000000000000000F91100084E
:1000A000F9110008F9110008F9110008F911000808
:1000B000BD220008F9110008F9110008F911000823
:1000C000F9110008F9110008F9110008F9110008E8
:1000D000F9110008CD220008F9110008F9110008F3
:1000E000F9110008F9110008F9110008F9110008C8
:1000F000F9110008F911000800000000F9110008CA
:10010000F911000800000000F9110008F9110008B9
:10011000F9110008F9110008F9110008F911000897
:10012000F9110008F9110008F9110008F911000887
:10013000F9110008000000000000000000000000AD
:1001400000000000000000000000000000000000AF
:080150000000000000000000A7
:10015800F0B583074AD0541E002A44D00D062D0E50
:100168000200032602E01A00013C3CD3531C157020
:100178003342F8D1032C2DD9FF220A40150215432A
:100188002A0415430F2C16D92700103F3F093E01BA
:10019800B4461E001A001036664415605560956016
:1001A800D5601032B242F8D10F2201373F01DB1976
:1001B8001440032C0ED9261FB608B700BC461A00F7
:1001C8001F1D674420C2BA42FCD103220136B60083
:1001D8009B191440002C06D009061C19090E197029
:1001E80001339C42FBD1F0BC02BC08471400030059
:1001F800C0E7C046021121E2000000EA023123E212
:1002080030402DE98140A0E18350A0E1050034E1B0
:100218000200300100C0941102C09511C4CAF01147
:10022800C5CAF0118C00000AA44AA0E1A55A74E0DE
:10023800005065B2060000DA054084E0022020E0A4
:10024800033021E0000022E0011023E0022020E03A
:10025800033021E0360055E33040BD881EFF2F8172
:10026800020111E30116A0E101C6A0E321168CE109
:100278000100000A000070E20010E1E2020113E34D
:100288000336A0E123368CE10100000A002072E267
:100298000030E3E2050034E16900000A014044E26D
:1002A80020E075E2050000BA12CEA0E1320590E028
:1002B8000010A1E2130E90E05315B1E0060000EA29
:1002C800205045E220E08EE2010052E313CEA0E187
:1002D80002C08C23530590E0C31FB1E0025101E234
:1002E8000200005A00C07CE20000F0E20010E1E2E7
:1002F800010651E30F00003A020651E30600003AF6
:10030800A110B0E16000B0E16CC0A0E1014084E25E
:10031800842AA0E1010572E36B00002A02015CE374
:10032800A0C0B0010000B0E2041AA1E0051081E10C
:100338003040BDE81EFF2FE18CC0B0E10000B0E006
:100348000110A1E0010611E3014044E2F2FFFF1AA7
:10035800000031E31430A0133430A0030010A001D2
:100368000000A0030120A0E1010852E32228A021F7
:1003780010304322010C52E32224A02108304322EA
:10038800100052E32222A02104304322040052E349
:1003980002304322A2304330A23143E0202053E20E
:1003A800070000AA0C2092E2040000DA14C082E2DE
:1003B8000C2062E2110CA0E13112A0E1040000EA75
:1003C800142082E220C062D21112A0E1301C81D137
:1003D8001002A0D1034054E0041A81A0051081A1A5
:1003E8003040BDA81EFF2FA10440E0E11F4054E2A9
:1003F8000F0000AA0C4094E2060000CA144084E2F0
:10040800202064E23004A0E1110280E1311485E18A
:100418003040BDE81EFF2FE10C4064E2202064E27A
:100428003002A0E1110480E10510A0E13040BDE8F0
:100438001EFF2FE13104A0E10510A0E13040BDE826
:100448001EFF2FE1000034E3013623E201162102EA
:1004580001408402015045128FFFFFEAC4CAF0E14F
:10046800C5CAF0111D00000A050034E10200300180
:100478000400000A00C094E10310A0010200A001DA
:100488003040BDE81EFF2FE1030031E10010A0134A
:100498000000A0133040BD181EFF2F11A4CAB0E100
:1004A8000400001A8000B0E10110B1E002118123BC
:1004B8003040BDE81EFF2FE1014594E2011681326C
:1004C8003040BD381EFF2F31025101E27F1485E311
:1004D8000F1681E30000A0E33040BDE81EFF2FE1C6
:1004E800C4CAF0E10310A0110200A011C5CAF001AE
:1004F8000130A0110020A011014690E1035692019D
:1005080003003101021781133040BDE81EFF2FE1BF
:10051800000030E30010A0031EFF2F0130402DE93A
:10052800014BA0E3324084E20050A0E30010A0E3B6
:1005380086FFFFEA000030E30010A0031EFF2F0132
:1005480030402DE9014BA0E3324084E2025110E231
:10055800000060420010A0E37CFFFFEA8020B0E1C9
:10056800C211A0E16110A0E1020EA0E1FF34121255
:10057800FF0433130E1321121EFF2F11FF24D2E3A1
:100588001EFF2F01FF0433E3021781031EFF2F0113
:1005980030402DE90E4DA0E3025101E20211C1E302
:1005A8006AFFFFEA012090E11EFF2F0130402DE98C
:1005B8000050A0E3060000EA012090E11EFF2F0191
:1005C80030402DE9025111E20100005A000070E2AA
:1005D8000010E1E2014BA0E3324084E221CBB0E11C
:1005E80042FFFF0A0320A0E3ACC1B0E1032082125E
:1005F800ACC1B0E103208212AC2182E0203062E27B
:1006080010C3A0E13002A0E1110380E13112A0E1A2
:10061800024084E035FFFFEA70402DE9FFC0A0E307
:1006280007CC8CE3214A1CE0235A1C100C0034111F
:100638000C0035117500000B054084E0036021E0D3
:100648008C1AC1E18C3AC3E1015690E1035692112C
:10065800011681E3013683E31D00000A90C28EE093
:100668000050A0E391E2A5E0022106E290E3A5E0B4
:100678000060A0E39153A6E000003CE301E08E1384
:10068800FF4044E2020C56E3034CC4E20200002A95
:100698008EE0B0E10550B5E00660A6E0861582E17F
:1006A800A51A81E18505A0E1AE0A80E18EE5A0E109
:1006B800FDC054E2070C5C831100008A02015EE36E
:1006C800A0E0B0010000B0E2041AA1E07040BDE86B
:1006D8001EFF2FE1026106E2011086E1020080E1BF
:1006E800031021E0AC4054E00C5074C0041A81C1DE
:1006F8007040BDC81EFF2FC1011681E300E0A0E3D2
:10070800014054E25D0000CA360074E30000A0D343
:10071800021101D27040BDD81EFF2FD1004064E203
:10072800204054E21A0000AA0C4094E20C0000CACF
:10073800144084E2205064E21035A0E13004A0E1C6
:10074800110580E1022101E20211C1E3A30F90E04B
:100758003114A2E083E09EE1A30FC0017040BDE820
:100768001EFF2FE10C4064E2205064E21034A0E147
:100778003005A0E1110480E1021101E2A30F90E02D
:100788000010A1E283E09EE1A30FC0017040BDE824
:100798001EFF2FE1205064E210E58EE13034A0E125
:1007A800113583E13104A0E1021101E23104C0E115
:1007B800A30F80E083E09EE1A30FC0017040BDE875
:1007C8001EFF2FE1000034E30800001A026101E275
:1007D8008000B0E10110A1E0010611E301404402EC
:1007E800FAFFFF0A061081E1000035E31EFF2F1112
:1007F800026103E28220B0E10330A3E0010613E3C3
:1008080001504502FAFFFF0A063083E11EFF2FE17F
:100818000C0034E1235A0CE00C0035110700000AE3
:10082800816090E183609211E5FFFF1A031021E0D7
:10083800021101E20000A0E37040BDE81EFF2FE1B5
:10084800816090E10200A0010310A0018360921171
:100858001000000A0C0034E10100001A016690E162
:100868000C00001A0C0035E10300001A036692E13F
:100878000200A0110310A0110600001A031021E0C5
:10088800021101E27F1481E30F1681E30000A0E367
:100898007040BDE81EFF2FE17F1481E33E1781E31E
:1008A8007040BDE81EFF2FE170402DE9FFC0A0E3B6
:1008B80007CC8CE3214A1CE0235A1C100C0034118D
:1008C8000C0035115E00000B054044E003E021E018
:1008D800035692E10116A0E14C00000A0336A0E19C
:1008E8000152A0E3233285E1223C83E10224A0E106
:1008F800215285E1205C85E10064A0E102110EE24D
:10090800030055E102005601FD40A4E2034C84E2D5
:100918000100002AA330B0E16220A0E1026056E0A5
:100928000350C5E0A330B0E16220A0E10106A0E3D6
:1009380002C7A0E302E056E003E0D5E002604620EB
:100948000E50A0210C008021A330B0E16220A0E16C
:1009580002E056E003E0D5E0026046200E50A021F8
:10096800AC008021A330B0E16220A0E102E056E0B3
:1009780003E0D5E0026046200E50A0212C01802122
:10098800A330B0E16220A0E102E056E003E0D5E048
:10099800026046200E50A021AC01802106E095E1BE
:1009A8000D00000A0552A0E1265E85E10662A0E17D
:1009B8008331A0E1A23E83E18221A0E12CC2B0E113
:1009C800DBFFFF1A010611E30600001A001081E19F
:1009D8000000A0E302C1A0E3D5FFFFEA010611E38E
:1009E800001081010000A003FDC054E2070C5C83E5
:1009F80043FFFF8A03C055E002C05600A0C0B00103
:100A08000000B0E2041AA1E07040BDE81EFF2FE12B
:100A180002E10EE221168EE1AC4094E00C5074C065
:100A2800041A81C17040BDC81EFF2FC1011681E3A1
:100A380000E0A0E3014054E231FFFFEA06E085E16F
:100A48002FFFFFEA235A0CE00C0034E10C003501BB
:100A580090FFFF0A0C0034E10600001A014690E1FD
:100A68008CFFFF1A0C0035E183FFFF1A0200A0E19A
:100A78000310A0E187FFFFEA0C0035E10400001A2B
:100A8800035692E168FFFF0A0200A0E10310A0E10B
:100A980080FFFFEA816090E18360921148FFFF1AAE
:100AA800814090E174FFFF1A835092E15EFFFF1AC4
:100AB80078FFFFEA8120B0E10A00002A022692E2CC
:100AC8000A00002A0700005A3E3EE0E3C22A53E02B
:100AD8000800004A8135A0E1023183E3A03A83E1AE
:100AE8003302A0E11EFF2FE10000A0E31EFF2FE16B
:100AF800010690E10100001A0000E0E31EFF2FE16B
:100B08000000A0E31EFF2FE1020120E2000000EA3E
:100B1800021121E28020B0E18130B01103003211CE
:100B280042CCF01143CCF0114700000A222CA0E17E
:100B3800233C72E0032082C0011020C0000021C0C5
:100B4800011020C0003063B2190053E31EFF2F814B
:100B5800020110E3020580E3FF04C0E30000601215
:100B6800020111E3021581E3FF14C1E300106112D1
:100B7800030032E12E00000A012042E2510390E016
:100B8800203063E21113A0E1023100E20100005AB3
:100B9800001071E20000E0E2020550E30B00003AA9
:100BA800010450E30400003AA000B0E16110A0E1A4
:100BB800012082E2FE0052E33800002A020151E3DC
:100BC800820BA0E00100C003030080E11EFF2FE1BB
:100BD8008110B0E10000A0E0020510E3012042E22C
:100BE800F5FFFF1A20C6B0E10006A0010C20420262
:100BF800FF0810E30004A001082042020F0610E3DA
:100C08000002A00104204202030510E30001A00134
:100C180002204202020550E38000A0310020D2E207
:100C2800820B80A0002062B2030080A1300283B151
:100C38001EFF2FE1000032E3021521E20205200227
:100C48000120820201304312CAFFFFEA8130A0E18D
:100C580042CCF0E143CCF0111300000A030032E16A
:100C68000200000A000032E30100A0011EFF2FE18C
:100C7800010030E10000A0131EFF2F11FF0412E352
:100C88000200001A8000B0E1020180231EFF2FE15C
:100C9800022492E2020580321EFF2F31023100E267
:100CA8007F0483E3020580E31EFF2FE1422CF0E17D
:100CB8000100A011433CF0010010A0118024B0E114
:100CC8008134B00101003001010580131EFF2FE1BE
:100CD8000030A0E3010000EA023110E200006042A7
:100CE80000C0B0E11EFF2F014B3483E30010A0E1E8
:100CF8000000A0E30F0000EA012090E11EFF2F0191
:100D08000030A0E3050000EA012090E11EFF2F015A
:100D1800023111E20100005A000070E20010E1E225
:100D280001C0B0E100C0A0010010A0010000A003B4
:100D38005B3483E301324302023543E21720A0E328
:100D480001085CE32CC8A02110204222010C5CE3BE
:100D58002CC4A0210820422210005CE32CC2A02150
:100D68000420422204005CE302204222AC204230EC
:100D7800AC2152E0823B43E0060000BA113283E026
:100D880010C2A0E1202062E202015CE33002A3E08D
:100D98000100C0031EFF2FE1202082E211C2A0E162
:100DA800202062E28C0090E13102A3E0AC0FC00188
:100DB8001EFF2FE1FFC0A0E3A02B1CE0A13B1C10ED
:100DC8000C0032110C0033113E00000A032082E0AF
:100DD80001C020E08004B0E18114B0111000000AC5
:100DE8000233A0E3A00283E1A11283E1903181E004
:100DF80002010CE2020551E38110A031A31F8131E9
:100E08008330A031010080E17F20C2E2FD0052E37F
:100E18000F00008A020153E3820BA0E00100C00327
:100E28001EFF2FE1000030E302C10CE28114A00193
:100E3800A0048CE1A10480E17F2052E2FF3072C25D
:100E4800820B80C11EFF2FC1020580E30030A0E3A2
:100E5800012052E2350000CA190072E3020100D2F3
:100E68001EFF2FD1002062E28010B0E13112A0E114
:100E7800202062E210C2A0E16100B0E10000A0E21F
:100E88008C3093E1AC0FC0011EFF2FE1000032E36C
:100E980002C100E28000A001020510030120420205
:100EA800FBFFFF0A0C0080E1000033E302C101E20E
:100EB8008110A0010205110301304302FBFFFF0A64
:100EC8000C1081E1C0FFFFEAA13B0CE00C0032E10D
:100ED8000C0033110500000A02C1D0E302C1D1138E
:100EE800E9FFFF1A010020E0020100E21EFF2FE1E6
:100EF800000030E3020130130100A00100003113AB
:100F0800020131130D00000A0C0032E10100001A41
:100F18008024B0E10900001A0C0033E10200001A35
:100F28008134B0E10100A0110400001A010020E0A2
:100F3800020100E27F0480E3020580E31EFF2FE147
:100F48007F0480E3030580E31EFF2FE1FFC0A0E3D9
:100F5800A02B1CE0A13B1C100C0032110C0033111B
:100F68003A00000A032042E001C020E08114B0E109
:100F78008004A0E11C00000A0132A0E3211283E1F1
:100F8800203283E102010CE2010053E18330A031F9
:100F98007D20A2E202C5A0E3010053E10130432015
:100FA8000C008021A10053E1A1304320AC00802136
:100FB800210153E1213143202C018021A10153E17A
:100FC800A1314320AC0180210332B0E12CC2B01121
:100FD800F0FFFF1AFD0052E39DFFFF8A010053E175
:100FE800820BA0E00100C0031EFF2FE102C10CE24A
:100FF800A0048CE17F2092E2FF3072C2820B80C194
:101008001EFF2FC1020580E30030A0E3012052E259
:101018008FFFFFEA000032E302C100E28000A00176
:101028000205100301204202FBFFFF0A0C0080E1C9
:10103800000033E302C101E28110A001020511039F
:1010480001304302FBFFFF0A0C1081E1C4FFFFEAF5
:10105800A13B0CE00C0032E10500001A8024B0E14D
:10106800B6FFFF1A0C0033E1AFFFFF1A0100A0E141
:10107800B2FFFFEA0C0033E10300001A8134B0E14B
:1010880097FFFF0A0100A0E1ACFFFFEA02C1D0E32D
:1010980002C1D113DEFFFF1A0221D0E3A2FFFF1A1B
:1010A8000231D1E38EFFFF1AA4FFFFEA8020B0E1EE
:1010B8000800002A7F0452E30600003A9E30A0E3AD
:1010C800222C53E00500004A0034A0E1023183E3FA
:1010D8003302A0E11EFF2FE10000A0E31EFF2FE175
:1010E800610072E30100001A8024B0E10100001AD7
:1010F8000000E0E31EFF2FE10000A0E31EFF2FE148
:1011080072B6FEE700B595B000230C930D930F93CC
:101118000593069307930893099301930293039306
:10112800049309230A934FF480330B9301220E9200
:1011380010920222119212934FF4E01313930AA80B
:1011480001F040FFD8B90F2305930221069100232F
:1011580007934FF480620892099305A802F06AF990
:1011680078B9012301934FF40073029301A801F0A9
:101178009FFD40B902F02EF915B05DF804FBFFF7AA
:10118800BFFFFFF7BDFFFFF7BBFF000008B502F088
:101198004FFFFFF7B7FF01F02BFA01F0FFFA01F05C
:1011A800C5F901F015FB01F0E9F801F0ADF801F01F
:1011B80097FA72B60B4800F095FB0B4C04212046B9
:1011C80000F01AFF0821204600F016FF0821074802
:1011D80000F084FF00F030FA62B600F0C7F900F0C2
:1011E8000FFAFAE70C010020C40000207C00002060
:1011F800FEE7704708B50C4B0C4A03E0116819600C
:10120800043304320A498B42F8D30A4B02E0002225
:101218001A600433084A9342F9D301F05BF8FFF7E8
:10122800E8FFFFF7B3FFFEE724000020C0400008F6
:101238007000002070000020FC010020014630B141
:10124800034B1A6800235362536A8B42FCD37047DE
:101258000C01002038B572B62022FF211148FEF794
:1012680077FF0025104B1D60104C636843F0007336
:1012780063602022FF210E48FEF76AFF4FF00063EB
:10128800A3601B680B4A126883F3088885F31488E7
:1012980001220321084802F0BBF901F019FE01F010
:1012A80077FB38BD80E100E010E000E000ED00E0F1
:1012B80080E200E0040000085401002010B5104C42
:1012C80000224FF40061204601F0E6FC0A20FFF7F7
:1012D800B5FF01224FF40061204601F0DDFC0A2031
:1012E800FFF7ACFF00224FF40061204601F0D4FC68
:1012F800044B1A68D36843F00803D36010BD00BFDD
:10130800000C01407C000020014B1B68986370476B
:10131800C4000020014B1B6898637047C40000207C
:10132800014B1B6898637047C4000020014B1B6881
:1013380098637047C4000020034B1B6800229A631F
:101348009A639A639A637047C400002070B5044694
:101358000D460846FFF7C0FC1949FFF72BFDFFF7BC
:10136800A5FE642D29D886B2601E042827D8DFE898
:1013780000F003070B0F13003046FFF7C5FF1EE010
:101388003046FFF7C7FF1AE03046FFF7C9FF16E0FF
:101398003046FFF7CBFF12E015B9FFF7CDFF0EE09F
:1013A8003046FFF7B1FF3046FFF7B4FF3046FFF78E
:1013B800B7FF3046FFF7BAFF01E0FFF7BDFF70BD8A
:1013C80066760A4408B501224FF48071014801F09D
:1013D80063FC08BD0008014008B500224FF4807185
:1013E800014801F059FC08BD00080140F8B507465E
:1013F8000E46002509E01920FFF720FF0134A4B2AA
:10140800B4F57A7FF7D30135ADB2B54213D237F8C8
:1014180025300BB90024F3E7FFF7D4FF002404E0DC
:101428003220FFF70BFF0134A4B2B4F57A7FF7D36B
:10143800FFF7D2FFE7E7F8BD014B1B68D863704799
:10144800C4000020014B1B68D8637047C40000200B
:1014580064291FD838B504460846FFF73DFC0E49F5
:10146800FFF7A8FCFFF722FE85B2012C07D014B1C4
:10147800022C08D038BD2846FFF7DEFFFAE72846D9
:10148800FFF7E0FFF6E72846FFF7D6FF2846FFF705
:10149800D9FFEFE7704700BF66760A4400000000F6
:1014A8002D4B984200D07047037F042BFBD110B519
:1014B80004462A4B1B78002B2CD0082100F041FA57
:1014C800236800225A62264B1B68984235D9C01AF5
:1014D800244B1860234B1868FFF71AF81CA3D3E9AC
:1014E8000023FFF799F8FFF7E5FAC0B201301E4B69
:1014F80018701A4B00221A702268136A23F40073BA
:10150800136223681A6A1A622268D36823F00803F0
:10151800D36010BD082100F014FA114B18600F4B6E
:1015280001221A702268136A23F400731362226876
:10153800136A43F400731362EBE79842CAD2C01AE5
:1015480000F58030074B1860C4E700BFAFF3008098
:101558009CC420B07268913F7C0000207800002075
:1015680074000020700000202500002008B5FFF757
:10157800A5FE014B187808BD2500002010B51928D4
:101588000FD81E4B0A221A70192834D8FFF71AFFF1
:101598001A4B1B786BBB194B1B7873B3FFF71CFFF7
:1015A8002BE0172803D8154B08221A70ECE71528EA
:1015B80003D8124B06221A70E6E7132803D80F4BFC
:1015C80004221A70E0E7112803D80C4B02221A7083
:1015D800DAE70E28D8D8094B00221A70D4E7074B4F
:1015E8001878FFF72BFE0134A4B2B4F57A7FF6D34E
:1015F800D1E70024F9E7FFF7EFFE10BD2400002033
:101608000C4B1B78012B00D0704710B504460F28EF
:101618000BD8FFF7B3FF082C01D9002008E0002100
:101628000520FFF793FE002002E0FFF7D5FE01201A
:1016380010BD00BF7A00002008B50022032106482B
:1016480001F0E6FF0F210548FFF7D0FE012204490B
:10165800044802F0B4FC08BD540100202800002012
:10166800790000206801002008B5064B01221A7095
:101678003C210520FFF76AFE50210220FFF7E8FE13
:1016880008BD00BF7A00002010B50024054B1C706F
:1016980021460520FFF75AFE21460220FFF7D8FE13
:1016A80010BD00BF7A00002008B50D4B834200D062
:1016B80008BD0C4B1B78532B0FD0732B0AD0232B50
:1016C80005D001220749064802F079FCF0E7FFF748
:1016D800C1FDF6E7FFF7C8FFF3E7FFF7D5FFF0E72F
:1016E800680100207900002070B4036A026A22F0C1
:1016F800010202624268846924F073040D6845EAB5
:10170800040623F002048B6823430D4DA84209D038
:101718000B4DA8420DD0426086614A68426303625D
:1017280070BC704723F00803CC68234323F00403FC
:10173800EEE722F440724C6914438A692243EAE7CF
:10174800002C014030B4036A026A22F480720262FB
:101758004268C46924F073040D682C4323F40073B1
:101768008D6843EA05230F4DA84209D00D4DA842C4
:101778000ED04260C4614A68C263036230BC7047DD
:1017880023F40063CD6843EA052323F48063EDE77F
:1017980022F440524D6942EA05128D6942EA051267
:1017A800E7E700BF002C014030B4036A026A22F464
:1017B800805202624468C26922F4E6420D6842EA35
:1017C800052223F400538D6843EA0533074DA842E8
:1017D80006D04460C2614A680264036230BC704744
:1017E80024F480444D6944EA8514F2E7002C014052
:1017F80010B4036A046A24F001040462846924F0C2
:10180800F00444EA021223F00A030B4382610362E4
:1018180010BC704730B4056A046A24F010040462EE
:10182800846924F4407444EA022222F470421B03BF
:101838009BB21A4325F0A005090101F0A001294334
:101848008261016230BC704710B4036A046A24F0F4
:1018580010040462846924F4704444EA023223F0D8
:10186800A00343EA01138261036210BC704730B4DD
:10187800056A046A24F480740462C46924F00304C9
:10188800224322F0F0021B01DBB21A4325F4007553
:10189800090201F400712943C261016230BC70473A
:1018A80030B4056A046A24F480540462C46924F4D8
:1018B800407444EA022222F470421B039BB21A438A
:1018C80025F40055090301F400512943C26101625E
:1018D80030BC7047836823F07003194341F0070157
:1018E8008160704790F83D30DBB2012B01D00120B8
:1018F8007047022380F83D300368104A934210D0A5
:10190800B3F1804F0DD0A2F59432934209D002F57D
:101918008062934205D01A6842F001021A600020E2
:1019280070479A6802F00702062A05D01A6842F042
:1019380001021A600020704700207047002C014007
:1019480070470C2914D8DFE801F0071313130A13A2
:1019580013130D13131310000368586B70470368B3
:10196800986B70470368D86B70470368186C7047AA
:1019780000207047704770477047704710B504469D
:1019880003681A6912F0020F11D0DA6812F0020F18
:101998000DD06FF002021A610123037703689B6977
:1019A80013F0030F70D0FFF77BFD00232377236824
:1019B8001A6912F0040F12D0DA6812F0040F0ED070
:1019C8006FF004021A610223237723689B6913F4DA
:1019D800407F5FD02046FFF763FD0023237723680D
:1019E8001A6912F0080F12D0DA6812F0080F0ED038
:1019F8006FF008021A61042323772368DB6913F068
:101A0800030F4ED02046FFF74BFD002323772368B2
:101A18001A6912F0100F12D0DA6812F0100F0ED0F7
:101A28006FF010021A61082323772368DB6913F427
:101A3800407F3DD02046FFF733FD002323772368FE
:101A48001A6912F0010F03D0DA6812F0010F36D1CB
:101A580023681A6912F0800F03D0DA6812F0800F39
:101A680034D123681A6912F0400F03D0DA6812F0F3
:101A7800400F32D123681A6912F0200F03D0DA68B8
:101A880012F0200F30D110BDFFF775FF2046FFF789
:101A980073FF8AE72046FFF76EFF2046FFF76CFFCB
:101AA8009BE72046FFF767FF2046FFF765FFACE797
:101AB8002046FFF760FF2046FFF75EFFBDE76FF0A7
:101AC80001021A612046FFF755FFC1E76FF0800257
:101AD8001A61204600F0DFFBC3E76FF040021A618D
:101AE8002046FFF74AFFC5E76FF020021A6120463B
:101AF80000F0D0FBC7E7000003681B4A90420AD0F9
:101B0800B0F1804F07D0A2F59432904203D002F58D
:101B18008062904203D123F070034A681343124A4B
:101B280090420AD0B0F1804F07D0A2F5943290428B
:101B380003D002F58062904203D123F44073CA684F
:101B4800134323F080034A69134303608B68C3621D
:101B58000B688362044B984202D0012343617047AB
:101B68000B690363F9E700BF002C014038B310B5D7
:101B7800044690F83D30EBB1022384F83D30211D36
:101B88002068FFF7B9FF012384F8463084F83E3017
:101B980084F83F3084F8403084F8413084F842308B
:101BA80084F8433084F8443084F8453084F83D3074
:101BB800002010BD80F83C3000F058FCDCE7012024
:101BC800704738B310B5044690F83D30EBB10223A6
:101BD80084F83D30211D2068FFF78EFF012384F82B
:101BE800463084F83E3084F83F3084F8403084F83A
:101BF800413084F8423084F8433084F8443084F823
:101C0800453084F83D30002010BD80F83C30FFF7A7
:101C180097FEDCE70120704738B310B5044690F80A
:101C28003D30EBB1022384F83D30211D2068FFF7D9
:101C380063FF012384F8463084F83E3084F83F304F
:101C480084F8403084F8413084F8423084F84330D6
:101C580084F8443084F8453084F83D30002010BDC5
:101C680080F83C3000F0C2FBDCE701207047000040
:101C780030B4036A026A22F0100202624468826980
:101C880022F4E6420D6842EA052223F020038D681B
:101C980043EA05130E4DA84209D00D4DA8420ED0B7
:101CA800446082614A688263036230BC704723F0F3
:101CB8008003CD6843EA051323F04003EDE724F4DD
:101CC80040644D6944EA85048D6944EA8504E7E780
:101CD800002C014038B590F83C30012B66D00D46F9
:101CE8000446012380F83C300C2A5DD8DFE802F076
:101CF800075C5C5C1E5C5C5C335C5C5C4700006899
:101D0800FFF7F2FC2268936943F0080393612268A5
:101D1800936923F0040393612268936929690B434B
:101D280093610020002384F83C3038BD0068FFF739
:101D38009FFF2268936943F4006393612268936963
:101D480023F48063936122689369296943EA012334
:101D580093610020E6E70068FFF7F4FC2268D36986
:101D680043F00803D3612268D36923F00403D361E5
:101D78002268D36929690B43D3610020D2E7006840
:101D8800FFF712FD2268D36943F40063D361226828
:101D9800D36923F48063D3612268D369296943EA4C
:101DA8000123D3610020BDE70120BBE70220BCE787
:101DB80070B4056A046A24F0010404628469114E4F
:101DC800B0420DD0B0F1804F0AD0A6F59436B0429B
:101DD80006D006F58066B04202D044F0010202E067
:101DE80024F00304224322F0F0021B01DBB2134368
:101DF80025F00A0201F00A0111438361016270BCF7
:101E0800704700BF002C014038B590F83C30012BDA
:101E18005AD00D460446012380F83C3052B1042ABA
:101E28001AD0082A2BD00C2A3BD00120002384F892
:101E38003C3038BDCB684A6809680068FFF7B8FFCE
:101E48002268936923F00C03936122689369A96857
:101E58000B4393610020E9E7CB684A68096800688A
:101E6800FFF7D8FC2268936923F4406393612268E2
:101E78009369A96843EA012393610020D6E7CB68F8
:101E88004A6809680068FFF7F2FC2268D36923F002
:101E98000C03D3612268D369A9680B43D36100207E
:101EA800C4E7CB684A6809680068FFF7F9FC22684C
:101EB800D36923F44063D3612268D369A96843EAEC
:101EC8000123D3610020B1E70220B2E710B484688F
:101ED80024F47F4442EA03230B432343836010BC6A
:101EE800704790F83C30012B73D010B5044601239D
:101EF80080F83C30022380F83D300268936823F470
:101F08007F4323F0770393600B68402B56D011D999
:101F1800702B3BD01FD8502B45D0602B19D1CA68E5
:101F280049680068FFF790FC60212068FFF7D2FC41
:101F3800002024E0102B04D009D9202B01D0302B0D
:101F480007D119462068FFF7C5FC002017E0002BD1
:101F5800F7D0012013E0B3F5805F0FD0B3F5005F31
:101F6800F7D1CB684A6889680068FFF7AFFF226835
:101F7800936843F480439360002000E0002001232D
:101F880084F83D30002384F83C3010BDCB684A68A3
:101F980089680068FFF79AFF2268936843F077031F
:101FA80093600020EBE7CA6849680068FFF720FCE7
:101FB80050212068FFF78EFC0020E0E7CA684968D6
:101FC8000068FFF715FC40212068FFF783FC00201C
:101FD800D5E70220704710B401F01F01012303FA6E
:101FE80001F4036A23EA04030362036A8A40134381
:101FF800036210BC704700000A4669BB90F83E3087
:10200800DBB213F1FF3318BF0123002B60D110B5E9
:10201800002A3DD1022380F83E30114604460122B1
:102028000068FFF7D8FF23682B4A934240D0236803
:10203800294A934241D0B3F1804F3ED0A2F5943261
:1020480093423AD002F58062934236D01A6842F041
:1020580001021A6000203AE0042909D008290FD0AB
:1020680090F84130DBB213F1FF3318BF0123CCE7FE
:1020780090F83F30DBB213F1FF3318BF0123C4E7F8
:1020880090F84030DBB213F1FF3318BF0123BCE7EF
:10209800042A05D0082A07D0022380F84130BCE77B
:1020A800022380F83F30B8E7022380F84030B4E7D5
:1020B8005A6C42F400425A64B9E79A6802F007027F
:1020C800062A07D01A6842F001021A60002010BDE3
:1020D800012070470020FAE7002C01400B4651B957
:1020E80090F83E20D2B2B3B990F84210C9B2012A92
:1020F80021D001207047042905D0082907D090F87D
:102108004120D2B2EFE790F83F20D2B2EBE790F847
:102118004020D2B2E7E7042B05D0082B07D090F86F
:102128004510C9B2E3E790F84310C9B2DFE790F869
:102138004410C9B2DBE7012901D0012070478BB9EF
:10214800022280F83E20EBB9022280F842200C2BB4
:1021580066D8DFE803F027656565486565654E65FF
:1021680065655400042B05D0082B07D0022280F89F
:102178004120E8E7022280F83F20E4E7022280F8C5
:102188004020E0E7042B05D0082B07D0022280F876
:102198004520DCE7022280F84320D8E7022280F8B5
:1021A8004420D4E70168CA6842F00202CA6010B548
:1021B8001946044601220068FFF70DFF23681A4AF2
:1021C800934222D0B3F1804F1FD0A2F594329342AC
:1021D8001BD002F58062934217D01A6842F00102C0
:1021E8001A6000201BE00168CA6842F00402CA6055
:1021F800DDE70168CA6842F00802CA60D7E70168EB
:10220800CA6842F01002CA60D1E79A6802F0070271
:10221800062A07D01A6842F001021A60002010BD91
:10222800012070470020FAE7002C014090F83C306C
:10223800012B2BD030B4012380F83C30022380F8E6
:102248003D3003685C689D6824F070040A68224386
:102258005A6003680E4A93420AD0B3F1804F07D000
:10226800A2F59432934203D002F58062934204D1DE
:1022780025F080054A6815439D60012380F83D30AC
:10228800002380F83C30184630BC70470220704765
:10229800002C01407047704708B501F0A7F9FEE728
:1022A800FEE7FEE7FEE770477047704708B501F0A4
:1022B800D1FE08BD08B50248FFF760FB08BD00BFA6
:1022C8007C00002008B5024801F022FD08BD00BFCF
:1022D800680100207047000082B00A4B9A6942F0FA
:1022E80001029A619A6902F001020092009ADA6981
:1022F80042F08052DA61DB6903F080530193019B5D
:1023080002B070470010024000B587B00023049364
:102318000593009301930293039317484FF080426B
:1023280002604722426083604FF6FE72C26003611A
:102338008361FFF771FCB0B900230493059304A9E6
:102348000D48FFF773FF88B900230093012201921B
:1023580002930393082269460748FFF755FD40B9E1
:1023680007B05DF804FBFEF7CBFEE5E7FEF7C8FE15
:10237800EAE7FEF7C5FEF3E77C00002000B587B06A
:102388000023029303930493059300930193154844
:10239800154A02604722426083604FF6FE72C260AF
:1023A80003618361FFF7E2FB98B906A94FF48053F4
:1023B80041F8103D0B48FFF794FD68B900230093DE
:1023C800019369460748FFF731FF40B907B05DF848
:1023D80004FBFEF795FEE8E7FEF792FEEEE7FEF750
:1023E8008FFEF3E70C0100200008004000B587B01D
:1023F800002302930393049305930368B3F1804F7A
:1024080002D007B05DF804FB03F50433DA6942F043
:102418000102DA61DA6902F001020092009A9A690F
:1024280042F008029A619B6903F008030193019B3B
:1024380006A94FF4806341F8103D0A4800F040FBBC
:10244800094A536823F4407343F0E06343F400738C
:102458005360002202211C2000F058FA1C2000F0D2
:1024680089FACEE7000C01400000014082B0036801
:102478000E4A934204D00E4A93420CD002B07047E1
:102488000C4BDA6942F00202DA61DB6903F00203FD
:102498000093009BF2E7074BDA6942F00402DA6125
:1024A800DB6903F004030193019BE7E700040040A4
:1024B800000800400010024010B586B000230293C7
:1024C8000393049305930268154B9A4201D006B012
:1024D80010BD03F503339A6942F004029A619A69C0
:1024E80002F004020092009A9A6942F008029A6186
:1024F8009B6903F008030193019B80230293022444
:102508000394059402A9074800F0DAFA012302931C
:102518000394059402A9044800F0D2FAD7E700BF53
:102528000004004000080140000C014000B58FB0D5
:1025380000230A930B930C930D930893099301932B
:102548000293039304930593069307932648274A17
:102558000260436083604DF65902C26003618023C4
:102568008361FFF703FB68BB0EA94FF4805341F862
:10257800103D1D48FFF7B5FC38BB1B48FFF721FB92
:1025880030BB00230893099308A91748FFF74EFEAC
:1025980008BB60230193002302930393059304224D
:1025A8000DEB02011048FFF795FBB8B9082201A905
:1025B8000D48FFF78FFBA0B90B48FFF77DFF0FB061
:1025C8005DF804FBFEF79CFDCEE7FEF799FDD4E726
:1025D800FEF796FDD5E7FEF793FDDAE7FEF790FDE7
:1025E800E4E7FEF78DFDE7E7C400002000040040A3
:1025F8002DE9F04188B000240494059406940794CA
:10260800334B9A6942F010029A619A6902F01002FB
:102618000092009A9A6942F020029A619A6902F03F
:1026280020020192019A9A6942F004029A619A6919
:1026380002F004020292029A9A6942F008029A6130
:102648009B6903F008030393039B224E22464FF431
:102658000061304600F020FB1F4D22464FF4807188
:10266800284600F019FB4FF46043049303270597AD
:1026780004A91A4800F024FA4FF673030493059747
:1026880004A9284600F01CFA4FF2FE33049305977C
:1026980004A9304600F014FA4FF4006304934FF095
:1026A8000108CDF8148006940227079704A930463C
:1026B80000F006FA4FF480730493CDF81480069462
:1026C800079704A9284600F0FBF908B0BDE8F08197
:1026D80000100240000C01400008014000100140B9
:1026E80000B583B00023ADF804308DF806300093B0
:1026F8001848194A02604FF0FF324260836001F0C7
:1027080049F9E8B900228DF804208DF805208DF8E4
:10271800062001A90F4801F054F8A0B901238DF84B
:1027280000308DF801308DF8023000228DF803203A
:102738006946084801F0A6F840B903B05DF804FB03
:10274800FEF7DEFCDEE7FEF7DBFCE7E7FEF7D8FC8A
:10275800F3E700BF540100200028004002680C4B3A
:102768009A4200D0704700B583B000F09BFA094B3D
:10277800DA6942F00062DA61DB6903F00063019311
:10278800019B054B01221A6003B05DF804FB00BFF2
:1027980000280040001002403C04424208B50A48A4
:1027A8000A4B03604FF4E133436000238360C36046
:1027B80003610C2242618361C36101F0EDF900B944
:1027C80008BDFEF79DFCFBE76801002000380140CA
:1027D80008B50A480A4B03604FF4E133436000230D
:1027E8008360C36003610C2242618361C36101F0AD
:1027F800D3F900B908BDFEF783FCFBE7B001002060
:102808000044004030B589B0002304930593069333
:1028180007930368304A934204D0304A934233D036
:1028280009B030BD2E4B9A6942F480429A619A6988
:1028380002F480420092009A9A6942F004029A6176
:102848009B6903F004030193019B4FF40073049305
:102858000223059303230793224D04A9284600F079
:102868002FF94FF48063049300240594069404A977
:10287800284600F025F922462146252000F046F892
:10288800252000F077F8CBE7154BDA6942F40032DF
:10289800DA61DA6902F400320292029A9A6942F025
:1028A80004029A619B6903F004030393039B0423C6
:1028B800049302230593032307930A4C04A9204693
:1028C80000F0FEF80823049300230593069304A957
:1028D800204600F0F5F8A3E7003801400044004026
:1028E8000010024000080140074AD36823F4E0635F
:1028F8001B041B0C000200F4E060184340F0BF60AA
:1029080040F40030D060704700ED00E030B4174B61
:10291800DB68C3F30223C3F10704042C28BF042493
:102928001D1D062D18D9033B4FF0FF3505FA04F499
:1029380021EA0401994005FA03F322EA0303194343
:1029480000280BDB0901C9B200F1604000F56140C5
:1029580080F8001330BC70470023E5E700F00F0053
:102968000901C9B2024B1954F4E700BF00ED00E0B9
:1029780014ED00E0002807DB00F01F0240090123E6
:102988009340024A42F82030704700BF00E100E05F
:10299800BFF34F8F0549CA6802F4E062044B134342
:1029A800CB60BFF34F8F00BFFDE700BF00ED00E035
:1029B8000400FA050138B0F1807F0AD2064B58604E
:1029C800064AF02182F823100020986007221A6036
:1029D80070470120704700BF10E000E000ED00E004
:1029E80090F82130DBB2022B06D004238363002346
:1029F80080F82030012070470268136823F00E0326
:102A080013600268136823F001031360036CC16B41
:102A1800012202FA03F34B6080F82120002380F89A
:102A2800203018467047000008B590F82130DBB216
:102A3800022B03D004238363012008BD02681368B6
:102A480023F00E0313600268136823F00103136078
:102A58000368194A934214D0143293421FD0143297
:102A680093421ED0143293421ED0143293421ED089
:102A78001432934202D04FF0807203E04FF4801278
:102A880000E001220D4B5A60012380F82130002319
:102A980080F82030436B6BB198470020CDE71022B7
:102AA800F0E74FF48072EDE74FF48052EAE74FF415
:102AB8008032E7E70020C0E708000240000002403B
:102AC800F0B482B000263246A2E0002D5AD0012D83
:102AD80000D1CE68FF2B69D88446FF2B69D89500B2
:102AE800DCF800400F27AF4024EA070406FA05F592
:102AF8002C43CCF800404C6814F0805F00F08780CD
:102B08005F4CA56945F00105A561A46904F00104BD
:102B18000194019C9508AF1C5A4C54F8274002F0C8
:102B28000307BF004FF00F0C0CFA07FC24EA0C0C4B
:102B3800554CA04243D004F58064A04200F0818047
:102B480004F58064A0427ED004F58064A04234D0AD
:102B5800042435E04D4FBD4214D00BD94C4FBD4233
:102B680010D007F58037BD420CD0A7F58017BD42BD
:102B7800B0D107E0A7F58017BD4203D007F580372D
:102B8800BD42A7D18D687DB1012D08D044610826CA
:102B9800A0E7CE6808369DE7CE680C369AE7046150
:102BA800082697E7002695E7042693E700F1040C2A
:102BB80093E7A2F10805AD0092E7032400E00024A2
:102BC800BC4044EA0C0402352E4F47F825404C68B7
:102BD80014F4801F39D02F4DAC681C43AC604C688E
:102BE80014F4001F37D02B4DEC681C43EC604C6884
:102BF80014F4003F35D0274D6C681C436C604C685A
:102C080014F4803F33D0234D2C6823432B600132CA
:102C18000B6833FA02F430D00124944023409C42DC
:102C2800F5D14D68122DB7D094D8022DB1D07FF6CA
:102C38004CAF032DB6D0112D7FF44CAFCE680436BF
:102C480048E70124BCE70224BAE7124DAC6824EA3D
:102C58000304AC60C3E70F4DEC6824EA0304EC609E
:102C6800C5E70C4D6C6824EA03046C60C7E7094D9E
:102C78002C6824EA03032B60C9E702B0F0BC704754
:102C8800001002400000014000080140000021102F
:102C9800000031100004014012B9090401617047B5
:102CA80001617047014B01221A60704720000E42F3
:102CB80070B582B00446036813F0010F34D03E4B60
:102CC800DB6913F0805F48D13B4BDA6942F08052F0
:102CD800DA61DB6903F080530193019B0125374BCF
:102CE8001B6813F4807F3AD0334B1B6A13F440738C
:102CF80011D0626802F440729A420CD02E4A136ACC
:102D080023F440702E4901260E6000260E601062E2
:102D180013F0010F37D1284A136A23F4407361680E
:102D28000B431362002D3FD1236813F0020F06D026
:102D3800214A536823F44043A1680B435360236836
:102D480013F0100F35D01C4A536823F48003E16850
:102D58000B435360002002B070BD0025BFE7174A3F
:102D6800136843F48073136001F080F90646134B2F
:102D78001B6813F4807FB7D101F078F9801B6428B1
:102D8800F5D90320E7E701F071F906460A4B1B6AFB
:102D980013F0020FBFD101F069F9801B41F28833AB
:102DA8009842F3D90320D6E7D36923F08053D3613F
:102DB800BAE70020CFE700BF0010024000700040D3
:102DC8004004424208B502284DD0102803D00128FB
:102DD80028D0002051E02D4B5A681B6813F0807FE3
:102DE8004CD0C2F383432A49C85C12F4803F15D003
:102DF800264B5B68C3F34043264AD25C264BB3FBA1
:102E0800F2F300FB03F0214B5B6813F4800F34D11D
:102E18004000224BA3FB003040082EE0204B03FB70
:102E280000F0F0E7194B1B6A40F202321A40B2F583
:102E3800817F25D003F44073B3F5007F04D0B3F548
:102E4800407F09D0002018E0104A526A12F0020FA1
:102E5800F5D049F6404010E00C4B1B6813F4003FD6
:102E680011D1002009E000F0AFFB084B5B68C3F309
:102E7800813301335B00B0FBF3F008BD0020FCE7B1
:102E88004FF40040F9E74FF22440F6E70010024003
:102E980098400008A840000800127A00ABAAAAAA25
:102EA80000093D0082B0084B1B68084AA2FB0323B7
:102EB8005B0A00FB03F0019000BF019B5A1E0192C0
:102EC800002BF9D102B0704764000020D34D621086
:102ED80070B501F0CBF80446364A136843F0010395
:102EE8001360344B1B6813F0020F07D101F0BEF8D2
:102EF800001B0228F5D90324204670BD2D4D2B68F0
:102F080023F0F80343F080032B6001F0AFF8044688
:102F180000236B60274B5B6813F00C0F08D001F09F
:102F2800A5F8001B41F288339842F3D90324E3E75C
:102F3800214B224A1A60224B186801F053F80446C4
:102F480008B10124D8E701F091F80546194A136839
:102F580023F080731360174B1B6813F0007F06D0B3
:102F680001F084F8401B0228F5D90324C4E7114E68
:102F78000023736001F07AF80546336823F41023C0
:102F880033600C4B1B6813F4003F06D001F06EF859
:102F9800401B6428F5D90324AEE7064B1A6822F4CF
:102FA80080221A605A6A42F080725A6200229A603D
:102FB800A2E700BF001002406400002000127A005F
:102FC8006C000020002800F0F58170B582B004463E
:102FD800036813F0010F2CD0AB4B5B6803F00C03B4
:102FE800042B1DD0A84B5B6803F00C03082B12D0F0
:102FF8006368B3F5803F41D0002B55D103F180437E
:1030080003F504331A6822F480321A601A6822F42D
:1030180080221A6037E09C4B5B6813F4803FE7D04E
:10302800994B1B6813F4003F03D06368002B00F032
:10303800C381236813F0020F76D0934B5B6813F0BB
:103048000C0F5FD0904B5B6803F00C03082B54D037
:103058002369002B00F08A808C4B01221A6001F052
:1030680005F80546884B1B6813F0020F75D100F070
:10307800FDFF401B0228F5D90320A0E1824A13680E
:1030880043F480331360636843B300F0EFFF0546F1
:103098007D4B1B6813F4003FCBD100F0E7FF401BCA
:1030A8006428F5D903208AE1B3F5A02F09D0764B1F
:1030B8001A6822F480321A601A6822F480221A6090
:1030C800E1E703F18043A3F53C331A6842F4802218
:1030D8001A601A6842F480321A60D4E700F0C6FF1A
:1030E8000546694B1B6813F4003FA2D000F0BEFFF1
:1030F800401B6428F5D9032061E1634B5B6813F436
:10310800803FA5D1604B1B6813F0020F04D02369E0
:10311800012B01D0012052E15B4A136823F0F80328
:10312800616943EAC1031360236813F0080F32D0C2
:10313800A369002B5BD0564B01221A6000F096FF62
:103148000546514B5B6A13F0020F21D100F08EFF48
:10315800401B0228F5D9032031E14B4A136823F0BC
:10316800F803616943EAC1031360DDE7474B0022B6
:103178001A6000F07BFF0546434B1B6813F0020FF3
:10318800D2D000F073FF401B0228F5D9032016E1C6
:103198000120FFF787FE236813F0040F00F09880E2
:1031A800394BDB6913F0805F33D1374BDA6942F072
:1031B8008052DA61DB6903F080530193019B01259A
:1031C800344B1B6813F4807F25D0E368012B36D07D
:1031D800002B4CD103F1804303F504331A6A22F023
:1031E80001021A621A6A22F004021A622CE0284BC1
:1031F80000221A6000F03AFF0546234B5B6A13F081
:10320800020FC8D000F032FF401B0228F5D9032076
:10321800D5E00025D4E71F4A136843F48073136090
:1032280000F024FF06461B4B1B6813F4807FCCD1AB
:1032380000F01CFF801B6428F5D90320BFE0124A68
:10324800136A43F001031362E3687BB300F00EFFD7
:1032580006460D4B1B6A13F0020F38D100F006FF2B
:10326800801B41F288339842F3D90320A7E0052B4D
:1032780012D0054B1A6A22F001021A621A6A22F069
:1032880004021A62E0E700BF001002400000424258
:1032980080044242007000404C4B1A6A42F004021B
:1032A8001A621A6A42F001021A62CDE700F0DEFEE5
:1032B8000646464B1B6A13F0020F08D000F0D6FEF4
:1032C800801B41F288339842F3D9032077E0E5B9AF
:1032D800E369002B72D03D4A526802F00C02082ABA
:1032E80056D0022B17D03A4B00221A6000F0BEFECF
:1032F8000446364B1B6813F0007F47D000F0B6FE3B
:10330800001B0228F5D9032059E0304AD36923F07D
:103318008053D361DCE72E4B00221A6000F0A6FE32
:1033280005462A4B1B6813F0007F06D000F09EFE6E
:10333800401B0228F5D9032041E0236AB3F5803FFA
:103348001AD022494B6823F47413226A606A024334
:1033580013434B601E4B01221A6000F087FE04469F
:103368001A4B1B6813F0007F0ED100F07FFE001B84
:103378000228F5D9032022E0144A536823F40033C5
:10338800A1680B435360DCE7002018E0002016E03A
:10339800012B16D00D4B5B6803F48031226A9142F1
:1033A80001D001200BE003F47013626A93420AD043
:1033B800012004E001207047012000E0002002B055
:1033C80070BD0120FBE70020F9E700BF00100240B4
:1033D80060004242014B01221A6070474C00424291
:1033E8000F4B5B6803F00C02082A16D1C3F3834223
:1033F8000C498A5C13F4803F03D10B4800FB02F0B0
:103408007047074B5B68C3F340430849CB5C0848E7
:1034180000FB02F0B0FBF3F070470548704700BFAF
:1034280000100240AC40000800093D00BC40000804
:1034380000127A00002800F0A38070B50446524BB1
:103448001B6803F007038B420CD24F4A136823F022
:1034580007030B431360136803F007038B4201D083
:10346800012070BD236813F0020F17D013F0040F6A
:1034780004D0464A536843F4E0635360236813F06A
:10348800080F04D0414A536843F4605353603F4ADD
:10349800536823F0F003A068034353600D46236884
:1034A80013F0010F31D06368012B20D0022B25D0F7
:1034B800364A126812F0020F64D034494A6822F082
:1034C800030213434B6000F0D1FD06462F4B5B68A7
:1034D80003F00C036268B3EB820F16D000F0C6FD50
:1034E800801B41F288339842F0D90320B9E7274A74
:1034F800126812F4003FE0D10120B2E7234A1268B3
:1035080012F0007FD9D10120ABE71F4B1B6803F0F5
:103518000703AB420CD91C4A136823F007032B435B
:103528001360136803F00703AB4201D0012098E74A
:10353800236813F0040F06D0144A536823F4E06399
:10354800E1680B435360236813F0080F07D00F4A54
:10355800536823F46053216943EAC1035360FFF7BA
:103568003FFF0A4B5B68C3F30313094AD35CD84097
:10357800084B1860084B186800F034FD002070E70D
:103588000120704701206CE7002002400010024033
:1035980080400008640000206C000020014B18687F
:1035A800704700BF6400002008B5FFF7F7FF044B21
:1035B8005B68C3F30223034AD35CD84008BD00BF4D
:1035C800001002409040000808B5FFF7E7FF044BE1
:1035D8005B68C3F3C223034AD35CD84008BD00BF6D
:1035E80000100240904000087047000008B5064BE4
:1035F8009B6813F0800F00D108BDFFF7F5FF034B60
:1036080080221A70F8E700BF001002400A1002403A
:10361800890001F1804101F5D84192B20A607047F2
:1036280030B402689469A5B2D369916988B28542B9
:1036380005D0D06980B240EA014030BC704798B2EA
:1036480040EA0440F9E70368186A5B6A9BB243EAF8
:1036580000407047030903EB83035A0000F00F0092
:103668001044C0B27047000010B400F5FA64022993
:1036780020D901EB4103C1EBC3011F4BA3FB01138D
:1036880002EB5303234403EB94031C4AA2FB0424D8
:10369800A3EB541303EBD41302331948A0FB032004
:1036A8001A1A00EB52008008C0EBC000181AC0B20A
:1036B80010BC704701EB4103C1EBC3010E4BA3FBE8
:1036C800011302EB5303234400F2CF7003EB900382
:1036D8000A4AA2FB0020A3EB501303EBD0130433D8
:1036E8000748A0FB03201A1A00EB52008008C0EB21
:1036F800C000181ADBE700BF398EE3381F85EB518D
:103708002549922438B5044600F0B0FC05462368E4
:103718005A6812F0200F07D100F0A8FC401BB0F542
:103728007A7FF4D9032004E05A6842F010025A6004
:10373800002038BD38B504460268536823F01003EA
:10374800536000F093FC054623685B6813F0200F74
:1037580007D100F08BFC401BB0F57A7FF4D9032029
:1037680000E0002038BD38B505460C46FFF7CAFF13
:1037780010B10123184638BD2B68220C9A612B68BA
:10378800A4B2DC612846FFF7D5FF03460028F1D034
:103798000123EFE738B505460C46FFF7B3FF10B134
:1037A8000123184638BD2B68220C1A622B68A4B274
:1037B8005C622846FFF7BEFF03460028F1D00123CC
:1037C800EFE770B5002857D00446002956D0037C8F
:1037D800012B55D00E460123037402234374BAB952
:1037E8000D784B78C3EB03139A004FF4616303FB26
:1037F80005258B781D4429462046FFF7B4FF064669
:10380800C8B104236374002323740126304670BDB5
:103818000878FFF71FFF4FF4616505FB00F5707826
:10382800FFF718FFC0EB001083001D44B078FFF7C6
:1038380011FF0544DFE72268536823F0050353604E
:103848002046FFF700FFB0F1FF3F01D0854204D8C2
:103858000123637400232374D8E700F5A83101F528
:10386800C0712046FFF796FF0028F1D00423637447
:10387800002323740126C9E70126C7E70126C5E707
:103888000226C3E700285DD038B5044600295BD07E
:10389800037C012B5AD00D46012303740223437481
:1038A800D2B9CB78C3734B7843738B788373A27B7D
:1038B800617BE07BFFF7D8FE207328702046FFF776
:1038C800AFFE234BA3FB0023B3F5484F11D20123CE
:1038D80063740020207438BDC878FFF7BBFEE0731E
:1038E8006878FFF7B7FE6073A878FFF7B3FEA07398
:1038F800DDE7184DA5FB00352D0C174B03FB15050F
:1039080029462046FFF72FFF28B1042363740023BC
:1039180023740120DFE72046FFF795FEB0F1FF3F53
:10392800D5D08542D3D900F5A83101F5C07120461C
:10393800FFF730FF0028CAD00423637400232374E0
:103948000120C8E7012070470120C4E70220C2E730
:10395800C5B3A29107452EC280510100C0B138B548
:1039680004460268536823F00803536000F07EFBA6
:10397800054623685B6813F0080F07D100F076FB53
:10398800401BB0F57A7FF4D9032000E0002038BD51
:1039980001207047002852D010B50446437C53B12B
:1039A800022363742046FFF7D9FF40B104236374F0
:1039B8000123184610BD0374FEF7D0FEF0E7204639
:1039C800FFF7A0FE48BB2268536823F00703536043
:1039D800A36823B11B4A136B23F001031363194A2D
:1039E800D36A23F46073A1680B43D3626368B3F1AD
:1039F800FF3F16D02268C3F30341916022689BB24F
:103A0800D3602046FFF796FE0346A0B90022E27372
:103A180001226273A2736274CBE7042363740123E7
:103A2800C7E70120FFF7CEF908B1431EE2E70423F8
:103A380063740123BDE7042363740123B9E70123F9
:103A480018467047006C0040026802F10C0353E806
:103A5800003F23F490730C3242E800310029F3D17F
:103A6800026802F1140353E8003F23F00103143203
:103A780042E800310029F3D1036B012B05D0202344
:103A880080F84230002303637047026802F10C0398
:103A980053E8003F23F010030C3242E800310029BC
:103AA800F3D1ECE790F84130DBB2212B27D18368C2
:103AB800B3F5805F16D0036A5A1C02621A7803684D
:103AC8005A60C38C013B9BB2C384D3B90268D368E4
:103AD80023F08003D3600268D36843F04003D360C7
:103AE800002070470369002BE5D1036A1B88026830
:103AF800C3F308035360036A02330362E1E7022059
:103B0800704700207047000038B504460268136902
:103B180023F44053C1680B4313618368026913435C
:103B280042691A430168CB6823F4B05323F00C03AD
:103B38001343CB600268536923F4407381690B43D4
:103B480053610268124B9A421FD0FFF72DFD00EB1C
:103B5800800000EB800063689B00B0FBF3F00D4D24
:103B6800A5FB00325109642202FB11021301323312
:103B7800A5FB03235B0903F0F00202EB011203F03B
:103B88000F03216813448B6038BDFFF71DFDDEE786
:103B9800003801401F85EB5160B310B5044690F81A
:103BA800413013B3242384F841302268D36823F4C6
:103BB8000053D3602046FFF7A7FF2268136923F458
:103BC800904313612268536923F02A0353612268E2
:103BD800D36843F40053D36000206064202384F842
:103BE800413084F84230606310BD80F84030FEF701
:103BF80009FED7E701207047704708B50168CB6810
:103C080023F04003CB60202380F84130FFF7F4FF16
:103C1800002008BD704708B5406A0023C385C384E7
:103C2800FFF7F8FF08BD704790F84230DBB2222B4F
:103C380069D18368B3F5805F4ED0826AB3F5805F3F
:103C480004D0002B55D10369002B52D103685B685F
:103C58001370836A01338362C38D013B9BB2C385B2
:103C6800002B52D100B583B00268D36823F020033B
:103C7800D3600268D36823F48073D3600268536901
:103C880023F001035361202380F84230002343636B
:103C9800036B012B33D100230363026802F10C0389
:103CA80053E8003F23F010030C3242E800310029AA
:103CB800F3D103681A6812F0100F06D0002201929F
:103CC8001A6801925B680193019B818DFFF7ABFF36
:103CD800002003B05DF804FB0269002AADD1826AB6
:103CE80003685B68C3F308031380836A0233836243
:103CF800B2E703685B6803F07F031370A9E7FDF779
:103D0800D3FC0020E5E70220704700207047000040
:103D180030B583B0044602681368D068516913F05F
:103D28000F0505D113F0200F02D010F0200F5ED13F
:103D3800002D72D011F0010102D110F4907F6CD0E7
:103D480013F0010F06D010F4807F03D0626C42F0AC
:103D58000102626413F0040F04D019B1626C42F0DE
:103D68000202626413F0020F04D019B1626C42F0CF
:103D78000402626413F0080F07D010F0200F00D17E
:103D880019B1626C42F008026264626C002A55D074
:103D980013F0200F02D010F0200F2CD123685B699C
:103DA80003F04003626C12F0080F00D17BB3204689
:103DB800FFF74AFE23685B6913F0400F23D022689F
:103DC80002F1140353E8003F23F04003143242E8A1
:103DD80000310029F3D1E36B8BB16A4A5A63E06B77
:103DE800FEF722FE50B3E06B436B984726E020466F
:103DF800FFF71AFF22E02046FFF716FFCEE720461E
:103E0800FFF708FF1AE02046FFF704FF16E02046F8
:103E1800FFF700FF0023636410E0216B01290FD036
:103E280013F0800F03D010F0800F40F0A28013F041
:103E3800400F03D010F0400F40F09F8003B030BD1A
:103E480013F0100FECD010F0100FE9D000230193FD
:103E58001368019353680193019B536913F0400F52
:103E68004ED0E26B13685B689BB2002BE6D0A18D45
:103E78009942E3D9E3859369202B37D0226802F170
:103E88000C0353E8003F23F480730C3242E80031FE
:103E98000029F3D1226802F1140353E8003F23F00C
:103EA8000103143242E800310029F3D1226802F1FB
:103EB800140353E8003F23F04003143242E8003172
:103EC8000029F3D1202384F8423000232363226899
:103ED80002F10C0353E8003F23F010030C3242E8D0
:103EE80000310029F3D1E06BFEF77AFD022363630A
:103EF800A18DE38DC91A89B22046FFF794FE9DE78C
:103F0800A18DE38DC91A89B2E38D9BB2002B95D0A0
:103F1800002993D0226802F10C0353E8003F23F4F0
:103F280090730C3242E800300028F3D1226802F185
:103F3800140353E8003F23F00103143242E8003031
:103F48000028F3D1202384F8423000232363226819
:103F580002F10C0353E8003F23F010030C3242E84F
:103F680000300028F3D1022363632046FFF75BFE8D
:103F780064E72046FFF796FD60E72046FFF73DFE21
:103F88005CE700BF1F3C000881628285C285002370
:103F98004364222380F84230036923B10268D3685E
:103FA80043F48073D3600268536943F0010353619B
:103FB8000268D36843F02003D3600020704708B537
:103FC80090F84230DBB2202B08D149B10AB9012060
:103FD80005E000230363FFF7D7FF00E0022008BDD8
:103FE8000120FCE710B504460E4B18784FF47A739D
:103FF800B3FBF0F30C4A1068B0FBF3F0FEF7DAFC01
:1040080068B90F2C01D901200AE0002221464FF09F
:10401800FF30FEF77BFC054B1C60002000E0012010
:1040280010BD00BF68000020640000206C00002064
:1040380008B5074A136843F0100313600320FEF71E
:1040480053FC0F20FFF7CEFFFEF746F9002008BD0E
:1040580000200240034A1168034B1B780B4413608D
:10406800704700BFF801002068000020014B186865
:08407800704700BFF8010020B1
:104080000000000000000000010203040607080908
:1040900000000000010203040203040506070809EA
:1040A0000A0B0C0D0E0F1010010200000203040594
:1040B000060708090A0B0C0D0E0F10100102000074
:1040C0000F1000004D0AC800000064004D0AC8002F
:1040D000000064004D0AC80000006400400CC800E5
:1040E000000064002D09C80000006400A908C80091
:1040F000000064002D09C800000064000000F40105
:0C4100000024F40001000000100000008A
:020000042000DA
:10000000040000001400000003000000474E5500EB
:100010004C20F0BFB7FE21489699A1AC1216294496
:040020002A9AF8A57B
:04000005080011FDE1
:00000001FF
