:020000040800F2
:1000000000500020E1210008E5040008ED0400088C
:10001000EF040008F1040008F304000800000000E9
:10002000000000000000000000000000F5040008CF
:10003000F704000800000000F9040008FB040008B1
:100040002922000829220008292200082922000864
:100050002922000829220008292200082922000854
:100060002922000829220008292200082922000844
:100070002922000829220008292200082922000834
:100080002922000829220008292200082922000824
:100090002922000829220008292200082922000814
:1000A0002922000829220008292200082922000804
:1000B00029220008292200082922000829220008F4
:1000C00029220008292200082922000829220008E4
:1000D00029220008292200082922000829220008D4
:1000E0002922000829220008292200080000000017
:1000F0000000000000000000000000000000000000
:0C01000000000000000000005FF808F1A3
:10010C0010B5054C237833B9044B13B10448AFF345
:10011C0000800123237010BD20000020000000008F
:10012C00A022000808B5034B1BB103490348AFF3E9
:10013C00008008BD0000000024000020A022000860
:10014C0072B6FEE700B595B0282200210DEB020037
:10015C0002F098F8002305930693079308930993EC
:10016C00019302930393049309230A934FF480336E
:10017C000B9301220E9210920222119212934FF4C1
:10018C00E01313930AA800F0DFFAD8B90F230593F4
:10019C0002210691002307934FF480620892099381
:1001AC0005A800F009FD78B9012301934FF4007301
:1001BC00029301A800F0EEFD40B900F0CDFC15B0A3
:1001CC005DF804FBFFF7BCFFFFF7BAFFFFF7B8FFC2
:1001DC0008B500F0FDF9FFF7B5FF00F00BF800F0E3
:1001EC0059F800F0DBF800F0F3F800F079F801F0C2
:1001FC00D5FFFCE710B588B0002304930593069354
:10020C00079303F1804303F504339A6942F010021B
:10021C009A619A6902F010020092009A9A6942F06F
:10022C0020029A619A6902F020020192019A9A695D
:10023C0042F004029A619A6902F004020292029A54
:10024C009A6942F008029A619B6903F008030393D0
:10025C00039B4FF4604304930324059404A90A48B8
:10026C0000F090FE4FF6F3130493059404A907488D
:10027C0000F088FE4FF6FF730493059404A904481C
:10028C0000F080FE08B010BD0010014000080140D5
:10029C00000C014008B50548054B036000F044F91B
:1002AC0000B908BDFFF74CFFFBE700BF3C00002086
:1002BC00003002400268094B9A4200D0704782B06D
:1002CC00A3F500535A6942F040025A615B6903F08E
:1002DC0040030193019B02B0704700BF0030024005
:1002EC0000B583B00023ADF804308DF806300093D0
:1002FC001848194A02604FF0FF324260836001F0E7
:10030C00F5FAE8B900228DF804208DF805208DF857
:10031C00062001A90F4801F002FAA0B901238DF8BB
:10032C0000308DF801308DF8023000228DF803205A
:10033C006946084801F054FA40B903B05DF804FB73
:10034C00FFF7FEFEDEE7FFF7FBFEE7E7FFF7F8FE41
:10035C00F3E700BF440000200028004002680C4B6B
:10036C009A4200D0704700B583B000F07BFF094B78
:10037C00DA6942F00062DA61DB6903F00063019331
:10038C00019B054B0122C3F83C2403B05DF804FB30
:10039C0000280040001002400000424208B50A4804
:1003AC000A4B03604FF4E133436000238360C36066
:1003BC0003610C2242618361C36101F08DFB00B9C2
:1003CC0008BDFFF7BDFEFBE75800002000380140D8
:1003DC0008B50A480A4B03604FF4E133436000232D
:1003EC008360C36003610C2242618361C36101F0CD
:1003FC0073FB00B908BDFFF7A3FEFBE7A0000020CC
:10040C000044004010B588B0002304930593069374
:10041C00079303682C4A934204D02C4A93422BD066
:10042C0008B010BD2A4B9A6942F480429A619A69CD
:10043C0002F480420092009A9A6942F004029A6196
:10044C009B6903F004030193019B4FF40073049325
:10045C0002230593032307931E4C04A9204600F0A6
:10046C0091FD4FF48063049300230593069304A934
:10047C00204600F087FDD3E7154BDA6942F40032D1
:10048C00DA61DA6902F400320292029A9A6942F055
:10049C0004029A619B6903F004030393039B0423F6
:1004AC00049302230593032307930A4C04A92046C3
:1004BC0000F068FD0823049300230593069304A918
:1004CC00204600F05FFDABE70038014000440040DF
:1004DC00001002400008014008B500F04BFCFEE79C
:1004EC00FEE7FEE7FEE7FEE770477047704708B58A
:1004FC0000F080F808BD000082B00A4B9A6942F007
:10050C0001029A619A6902F001020092009ADA697A
:10051C0042F08052DA61DB6903F080530193019B56
:10052C0002B070470010024058B110B50446437930
:10053C001BB101236371002010BD0371FFF7BAFEDC
:10054C00F7E701207047844602234371002393424E
:10055C0011D200B5DCF8000051F823E0C0F800E03F
:10056C0001339342F6D3DCF80030186801238CF881
:10057C0005305DF804FB0368186801238CF805301E
:10058C007047000010B504460E4B18784FF47A7380
:10059C00B3FBF0F30C4A1068B0FBF3F000F04EFE26
:1005AC0068B90F2C01D901200AE0002221464FF036
:1005BC00FF3000F00BFE054B1C60002000E001201A
:1005CC0010BD00BF00000020080000200400002027
:1005DC0008B5074A136843F010031360032000F0BA
:1005EC00E3FD0F20FFF7CEFFFFF786FF002008BDCD
:1005FC0000200240034A1168034B1B780B44136024
:10060C00704700BFE800002000000020014B186874
:10061C00704700BFE8000020024B1868C0F30B00C5
:10062C00704700BF002004E082B0084B1B68084AEA
:10063C00A2FB03235B0A00FB03F3019300BF019BA6
:10064C005A1E0192002BF9D102B07047080000200D
:10065C00D34D621070B5FFF7D9FF0446364A1368C4
:10066C0043F001031360344B1B6813F0020F07D1E6
:10067C00FFF7CCFF001B0228F5D90324204670BDE0
:10068C002D4D2B6823F0F80343F080032B60FFF70C
:10069C00BDFF044600236B60274B5B6813F00C0F07
:1006AC0008D0FFF7B3FF001B41F288339842F3D90F
:1006BC000324E3E7214B224A1A60224B1868FFF708
:1006CC0061FF044608B10124D8E7FFF79FFF0546F8
:1006DC00194A136823F080731360174B1B6813F0CF
:1006EC00007F06D0FFF792FF401B0228F5D90324A8
:1006FC00C4E7114E00237360FFF788FF054633688B
:10070C0023F4102333600C4B1B6813F4003F06D00A
:10071C00FFF77CFF401B6428F5D90324AEE7064B9A
:10072C001A6822F480221A605A6A42F080725A6265
:10073C0000229A60A2E700BF0010024008000020CF
:10074C0000127A0004000020002800F0F18170B53E
:10075C0082B00446036813F0010F2CD0994B5B68F0
:10076C0003F00C03042B1DD0964B5B6803F00C03B9
:10077C00082B12D06368B3F5803F41D0002B55D1C4
:10078C0003F1804303F504331A6822F480321A60B3
:10079C001A6822F480221A6037E08A4B5B6813F4E3
:1007AC00803FE7D0874B1B6813F4003F03D063688E
:1007BC00002B00F0BF81236813F0020F75D0814B22
:1007CC005B6813F00C0F5FD07E4B5B6803F00C037F
:1007DC00082B54D02369002B00F08A807A4B01221D
:1007EC001A60FFF713FF0546764B1B6813F0020FD8
:1007FC0075D1FFF70BFF401B0228F5D903209EE1B2
:10080C00704A136843F480331360636843B3FFF793
:10081C00FDFE05466B4B1B6813F4003FCBD1FFF775
:10082C00F5FE401B6428F5D9032088E1B3F5A02F11
:10083C0009D0644B1A6822F480321A601A6822F4C8
:10084C0080221A60E1E703F18043A3F53C331A6878
:10085C0042F480221A601A6842F480321A60D4E79B
:10086C00FFF7D4FE0546574B1B6813F4003FA2D08C
:10087C00FFF7CCFE401B6428F5D903205FE1514BF8
:10088C005B6813F4803FA5D14E4B1B6813F0020F2D
:10089C0003D02369012B40F04F814A4A136823F09F
:1008AC00F803616943EAC1031360236813F0080F6E
:1008BC0033D0A369002B5CD0434B0122C3F88024B6
:1008CC00FFF7A4FE05463F4B5B6A13F0020F21D1E4
:1008DC00FFF79CFE401B0228F5D903202FE1394A73
:1008EC00136823F0F803616943EAC1031360DCE782
:1008FC00354B00221A60FFF789FE0546314B1B6809
:10090C0013F0020FD1D0FFF781FE401B0228F5D95E
:10091C00032014E10120FFF787FE236813F0040F76
:10092C0000F09680274BDB6913F0805F34D1254BA8
:10093C00DA6942F08052DA61DB6903F0805301938B
:10094C00019B0125214B1B6813F4807F26D0E368A3
:10095C00012B3DD0002B53D103F1804303F504331D
:10096C001A6A22F001021A621A6A22F004021A624E
:10097C0033E0154B0022C3F88024FFF747FE0546F1
:10098C00104B5B6A13F0020FC7D0FFF73FFE401B02
:10099C000228F5D90320D2E00025D3E70B4A1368CF
:1009AC0043F480731360FFF731FE0646074B1B6858
:1009BC0013F4807FCBD1FFF729FE801B6428F5D977
:1009CC000320BCE0001002400000424200700040D6
:1009DC005F4A136A43F001031362E36833B3FFF712
:1009EC0015FE06465A4B1B6A13F0020F2FD1FFF768
:1009FC000DFE801B41F288339842F3D903209EE010
:100A0C00052B09D0524B1A6A22F001021A621A6A9B
:100A1C0022F004021A62E0E74D4B1A6A42F004021B
:100A2C001A621A6A42F001021A62D6E7FFF7EEFD6B
:100A3C000646474B1B6A13F0020F08D0FFF7E6FD82
:100A4C00801B41F288339842F3D9032077E0E5B953
:100A5C00E369002B72D03E4A526802F00C02082A5D
:100A6C0056D0022B17D03B4B00221A66FFF7CEFD57
:100A7C000446374B1B6813F0007F47D0FFF7C6FDC9
:100A8C00001B0228F5D9032059E0314AD36923F021
:100A9C008053D361DCE72F4B00221A66FFF7B6FDBB
:100AAC0005462B4B1B6813F0007F06D0FFF7AEFDFD
:100ABC00401B0228F5D9032041E0236AB3F5803F9F
:100ACC001AD023494B6823F47413226A606A0243D8
:100ADC0013434B601F4B01221A66FFF797FD044628
:100AEC001B4B1B6813F0007F0ED1FFF78FFD001B13
:100AFC000228F5D9032022E0154A536823F4003369
:100B0C00A1680B435360DCE7002018E0002016E0DE
:100B1C00012B16D00E4B5B6803F48031226A914294
:100B2C0011D103F47013626A93420ED1002006E0D7
:100B3C0001207047012002E0012000E0002002B0FB
:100B4C0070BD0120FBE70120F9E70120F7E700BFAA
:100B5C000010024000004242014B0122DA6470474F
:100B6C00000042420F4B5B6803F00C02082A01D0D4
:100B7C000D487047C3F383420C49885C13F4803FE3
:100B8C000BD0084B5B68C3F34043094AD35C064A5D
:100B9C0002FB00F0B0FBF3F07047064B03FB00F0D8
:100BAC00704700BF0010024000127A00B822000803
:100BBC00C822000800093D00002800F0A08070B594
:100BCC000D460446524B1B6803F007038B420BD2B5
:100BDC004F4A136823F007030B431360136803F0A9
:100BEC0007038B4240F08D80236813F0020F17D05F
:100BFC0013F0040F04D0474A536843F4E063536086
:100C0C00236813F0080F04D0424A536843F460532E
:100C1C005360404A536823F0F003A1680B435360C0
:100C2C00236813F0010F31D06368012B20D0022B05
:100C3C0025D0384A126812F0020F64D035494A6840
:100C4C0022F0030213434B60FFF7E0FC0646314BE6
:100C5C005B6803F00C036268B3EB820F16D0FFF7EE
:100C6C00D5FC801B41F288339842F0D9032045E033
:100C7C00284A126812F4003FE0D101203EE0254AD8
:100C8C00126812F0007FD9D1012037E0204B1B688D
:100C9C0003F00703AB420AD91D4A136823F007037C
:100CAC002B431360136803F00703AB422DD1236869
:100CBC0013F0040F06D0174A536823F4E063E1687D
:100CCC000B435360236813F0080F07D0114A536885
:100CDC0023F46053216943EAC1035360FFF742FFD9
:100CEC000C4B5B68C3F303130B4AD35CD8400B4B20
:100CFC0018600B4B1868FFF745FC002070BD0120F5
:100D0C0070470120FAE70120F8E70120F6E700BF61
:100D1C000020024000100240E022000808000020E1
:100D2C0004000020014B1868704700BF0800002029
:100D3C0008B5FFF7F7FF044B5B68C3F30223034AC4
:100D4C00D35CD84008BD00BF00100240F022000860
:100D5C0008B5FFF7E7FF044B5B68C3F3C223034AF4
:100D6C00D35CD84008BD00BF00100240F022000840
:100D7C007047000008B5064B9B6813F0800F00D13C
:100D8C0008BDFFF7F5FF024B80229A72F8E700BF0F
:100D9C000010024070B582B00446036813F0010FD6
:100DAC0036D03F4BDB6913F0805F49D13C4BDA699D
:100DBC0042F08052DA61DB6903F080530193019BAE
:100DCC000125384B1B6813F4807F3BD0344B1B6AD6
:100DDC0013F4407313D0626802F440729A420ED03E
:100DEC002F4A136A23F440702F490126C1F840643E
:100DFC000026C1F84064106213F0010F36D1284A66
:100E0C00136A23F4407361680B431362002D3ED1C7
:100E1C00236813F0020F06D0214A536823F4404391
:100E2C00A1680B435360236813F0100F34D01C4A95
:100E3C00536823F48003E1680B43536000202CE0DB
:100E4C000025BEE7174A136843F480731360FFF75D
:100E5C00DDFB0646134B1B6813F4807FB6D1FFF7FE
:100E6C00D5FB801B6428F5D9032016E0FFF7CEFBD9
:100E7C0006460B4B1B6A13F0020FC0D1FFF7C6FBE3
:100E8C00801B41F288339842F3D9032005E0D369E3
:100E9C0023F08053D361BBE7002002B070BD00BFCC
:100EAC0000100240007000400000424208B50228C9
:100EBC004ED0102803D0012828D0002008BD2B4B81
:100ECC005A68186810F08070F8D0C2F38343284930
:100EDC00C85C12F4803F15D0244B5B68C3F34043CD
:100EEC00244AD25C244BB3FBF2F303FB00F01F4B00
:100EFC005B6813F4800FE1D14000204BA3FB003062
:100F0C004008DBE71E4B03FB00F0F0E7174B1B6AB6
:100F1C0040F202321A40B2F5817F24D003F44073C0
:100F2C00B3F5007F04D0B3F5407F09D00020C5E7AE
:100F3C000E4A526A12F0020FF5D049F64040BDE756
:100F4C000A4B186810F40030B8D04FF22440B5E7C3
:100F5C00FFF7FEFE054B5B68C3F3813301335B0087
:100F6C00B0FBF3F0AAE74FF40040A7E700100240F3
:100F7C00CC220008DC22000800127A00ABAAAAAA34
:100F8C0000093D0070B582B00024A446A6E0804D57
:100F9C00AA4210D007D97F4DAA420CD005F5803556
:100FAC00AA4208D013E0A5F58015AA4203D005F596
:100FBC007025AA4207D18A68002A58D0012A51D03C
:100FCC004361082403E0A5F58015AA42F3D0BEF1D5
:100FDC00FF0F4ED80646BEF1FF0F4CD84FEA8C02DD
:100FEC0033680F25954023EA050304FA02F21343F4
:100FFC0033604B6813F0805F6ED0674B9A6942F098
:10100C0001029A619B6903F001030193019B4FEA72
:10101C009C02951C614B53F825600CF003039D005A
:10102C000F23AB4026EA03065D4B984229D003F50B
:10103C008063984200F08E8003F58063984200F044
:10104C008B8003F58063984219D004231AE0CC6896
:10105C00BDE7CC680434BAE7CC680834B7E7CC6891
:10106C000C34B4E703610824B1E70024AFE704248F
:10107C00ADE7061DAFE7ACF108029200B0E7032321
:10108C0000E00023AB4033430232444D45F822309C
:10109C004B6813F4801F61D0424A936843EA0E03F5
:1010AC0093604B6813F4001F5ED03E4AD36843EA4A
:1010BC000E03D3604B6813F4003F5BD0394A53687E
:1010CC0043EA0E0353604B6813F4803F58D0354A03
:1010DC00136843EA0E0313600CF1010C0A6832FA30
:1010EC000CF353D0012303FA0CF302EA030E33EA98
:1010FC000202F1D14A68122A3FF649AF122A3FF692
:10110C0066AF01A555F822F0C30F00085B1000086C
:10111C006510000877100008DB0F0008DB0F0008D3
:10112C00DB0F0008DB0F0008DB0F0008DB0F0008EB
:10113C00DB0F0008DB0F0008DB0F0008DB0F0008DB
:10114C00DB0F0008DB0F0008DB0F00085F10000846
:10115C006B100008012395E7022393E7114A93686B
:10116C0023EA0E0393609CE70E4AD36823EA0E032E
:10117C00D3609FE70B4A536823EA0E035360A2E740
:10118C00084A136823EA0E031360A5E702B070BD8A
:10119C00000022100000311000100240000001403D
:1011AC000008014000040140074AD36823F4E063BF
:1011BC001B041B0C000200F4E060034343F0BF630C
:1011CC0043F40033D360704700ED00E000B5194BD9
:1011DC00DB68C3F30223C3F1070CBCF1040F28BF77
:1011EC004FF0040C03F1040EBEF1060F18D9033BAB
:1011FC004FF0FF3E0EFA0CFC21EA0C0199400EFA5E
:10120C0003F322EA0303194300280BDB0901C9B2DB
:10121C0000F1604000F5614080F800135DF804FBBC
:10122C000023E5E700F00F000901C9B2024B195485
:10123C00F4E700BF00ED00E014ED00E00138B0F180
:10124C00807F0BD24FF0E0235861054AF02182F8E1
:10125C0023100020986107221A6170470120704703
:10126C0000ED00E0014B01221A62704700000E42B3
:10127C00044B0022DA61044A136943F00103136141
:10128C0001807047F000002000200240194BDB6801
:10129C0013F0100305D0184AD36943F00203D3614D
:1012AC001023144AD26812F0040F06D01249CA69EE
:1012BC0042F00102CA6143F004030E4AD26912F0F3
:1012CC00010F09D00C49CA6942F00402CA610949EC
:1012DC00CA6922F00102CA6140F20112934202D0A3
:1012EC00044AD3607047034AD36923F00103D361E6
:1012FC00704700BF00200240F00000200A4B1B6921
:10130C0013F0800F0BD0084B084A5A6002F1883258
:10131C005A601B6913F0800F03D100207047002026
:10132C0070470120704700BF002002402301674531
:10133C00034A136943F0800313610020704700BF18
:10134C000020024038B50446FFF760F90546164BFD
:10135C00DB6813F0010F0AD0B4F1FF3FF7D024B1D2
:10136C00FFF754F9401BA042F1D903201BE00E4BB0
:10137C00DB6813F0200F02D00B4B2022DA600A4BF3
:10138C00DB6813F0100F0BD1074BDB6913F0010F67
:10139C0006D1054BDB6813F0040F01D1002002E0ED
:1013AC00FFF774FF012038BD002002402DE9F843FF
:1013BC001E46244B1B7E012B41D004460F46904603
:1013CC00204B01221A764CF25030FFF7BBFF03463C
:1013DC0078BB012C08D0022C03D04FF004091C461A
:1013EC0007E04FF00209FAE74FF00109F7E7013483
:1013FC00E4B24C451DD22101C1F12002A1F1200320
:10140C0028FA01F106FA02F2114326FA03F3194302
:10141C0089B207EB4400FFF72BFF4CF25030FFF77B
:10142C0091FF094B1D6925F001051D61034600283C
:10143C00DDD0044A002111761846BDE8F88302235A
:10144C00FAE700BFF000002000200240064B00220B
:10145C00DA61064B1A6942F004021A611A6942F009
:10146C0040021A61704700BFF000002000200240CB
:10147C00014B186A704700BF00200240044BDB6927
:10148C0013F0020F01D000207047A520704700BF59
:10149C0000200240024BD869C0F38200704700BFA5
:1014AC000020024010B5044607230360FFF7E0FF5D
:1014BC00A060FFF7E3FF2074FFF7ECFF607410BD32
:1014CC00064B0022DA61064B1A6942F002021A61DD
:1014DC0058611A6942F040021A617047F00000200E
:1014EC0000200240264B1B7E012B46D070B50546D2
:1014FC000E46234B01221A760368022B20D04CF2A5
:10150C005030FFF71FFF90BB4FF0FF333360AC68D8
:10151C000121EA68AB6803EB8223A34228D9204659
:10152C00FFF7CEFF4CF25030FFF70CFF154A136952
:10153C0023F0020313610146B8B904F58064E8E7AF
:10154C004CF25030FFF7FEFE08B1012110E00120F3
:10155C00FFF77CFF4CF25030FFF7F4FE0146094ACE
:10156C00136923F00403136102E0346000E00121ED
:10157C00034B00221A76084670BD022108467047BC
:10158C00F00000200020024010B4026894691FFA99
:10159C0084FCD369916988B2844505D0D06980B246
:1015AC0040EA014010BC704798B240EA0440F9E7A9
:1015BC000368186A5B6A9BB243EA004070470309F0
:1015CC0003EB830300F00F0000EB4300C0B2704745
:1015DC0000F5FA6C022921D801EB4103C1EBC301E0
:1015EC001E4BA3FB011302EB5303634400F2CF70B9
:1015FC0003EB90031A4AA2FB0020A3EB501303EB5E
:10160C00D01304331748A0FB03201A1A00EB520026
:10161C008008C0EBC000181AC0B2704701EB410340
:10162C00C1EBC3010D4BA3FB011302EB530363444A
:10163C0003EB9C030A4AA2FB0C2CA3EB5C1303EBFD
:10164C00DC1302330748A0FB03201A1A00EB5200EC
:10165C008008C0EBC000181ADEE700BF398EE338F3
:10166C001F85EB512549922438B50446FEF7CEFF71
:10167C00054623685A6812F0200F07D1FEF7C6FF03
:10168C00401BB0F57A7FF4D9032004E05A6842F08D
:10169C0010025A60002038BD38B504460268536801
:1016AC0023F010035360FEF7B1FF054623685B6817
:1016BC0013F0200F07D1FEF7A9FF401BB0F57A7F7E
:1016CC00F4D9032000E0002038BD38B505460C469F
:1016DC00FFF7CAFF08B1012038BD2B68220C9A61B4
:1016EC002B68A4B2DC612846FFF7D6FF0028F3D0A4
:1016FC000120F1E738B505460C46FFF7B5FF08B1F8
:10170C00012038BD2B68220C1A622B68A4B25C62D3
:10171C002846FFF7C1FF0028F3D00120F1E770B590
:10172C00002857D00D460646002955D0037C012BC6
:10173C0054D00123037402234374BAB908784B784C
:10174C00C3EB03139C004FF4616303FB00448878E4
:10175C00044421463046FFF7B8FF0546C8B10423C0
:10176C007374002333740125284670BD0878FFF785
:10177C0026FF4FF4616400FB04F46878FFF71FFF49
:10178C00C0EB001004EB8004A878FFF718FF0444AA
:10179C00DFE73268536823F0050353603046FFF7E8
:1017AC0007FFB0F1FF3F01D0844204D801237374CA
:1017BC0000233374D8E700F5A83101F5C071304629
:1017CC00FFF798FF0028F1D00423737400233374BF
:1017DC000125C9E70125C7E70125C5E70225C3E7B0
:1017EC0000285AD038B50D460446002957D0037C42
:1017FC00012B56D00123037402234374BAB9CB785E
:10180C00C3734B7843738B788373A27B617BE07BD0
:10181C00FFF7DEFE207328702046FFF7B5FE224B43
:10182C00984211D8012363740020207438BDC87805
:10183C00FFF7C5FEE0736878FFF7C1FE6073A87808
:10184C00FFF7BDFEA073E0E7184DA5FB00352D0C8E
:10185C00174B03FB150529462046FFF736FF28B129
:10186C0004236374002323740120DFE72046FFF771
:10187C009FFEB0F1FF3FD5D08542D3D900F5A831FA
:10188C0001F5C0712046FFF735FF0028CAD00423AC
:10189C006374002323740120C8E7012070470120E2
:1018AC00C4E70220C2E700BF8F5F010007452EC2CC
:1018BC0080510100C0B138B505460268536823F069
:1018CC0008035360FEF7A2FE04462B685B6813F016
:1018DC00080F07D1FEF79AFE001BB0F57A7FF4D9FA
:1018EC00032000E0002038BD01207047002850D0B4
:1018FC0010B50446437C4BB1022363742046FFF7BA
:10190C00D9FF38B104236374012010BD0374FEF7B2
:10191C0025FDF1E72046FFF7A7FE28BB2268536898
:10192C0023F007035360A36823B11B4A136B23F006
:10193C0001031363184AD36A23F46073A1680B4341
:10194C00D3626368B3F1FF3F12D02268C3F3034143
:10195C00916022689BB2D3602046FFF79DFE88B150
:10196C00042363740120D0E7042363740120CCE7C3
:10197C000120FFF79BFA08B1431EE6E704236374CA
:10198C000120C2E70023E37301236373A373637421
:10199C00BBE70120704700BF006C0040890001F1DB
:1019AC00804101F5D84192B20A607047890001F17B
:1019BC00804101F5D841086880B2704710B50446E3
:1019CC000268136923F44053C1680B4313618368A5
:1019DC000269134342691A430168CB6823F4B0537C
:1019EC0023F00C031343CB600268536923F4407358
:1019FC0081690B4353610268134B9A4220D0FFF765
:101A0C0097F9024602EB820202EB820263689B00AA
:101A1C00B2FBF3F20D48A0FB02314909642303FB2E
:101A2C0011231B013233A0FB03235B0903F0F002EB
:101A3C0002EB011203F00F03216813448B6010BDFD
:101A4C00FFF786F90246DDE7003801401F85EB51B0
:101A5C002DE9F84305460F4616469946DDF82080D9
:101A6C002C68246837EA04030CBF4FF0010C4FF0CC
:101A7C00000CB4452DD1B8F1FF3FF1D0B8F1000FF7
:101A8C0005D0FEF7C3FDA0EB09004045E8D92A6854
:101A9C0002F10C0353E8003F23F4D0730C3242E8FC
:101AAC0000310029F3D12A6802F1140353E8003FF6
:101ABC0023F00103143242E800310029F3D1202332
:101ACC0085F8413085F84230002385F840300320FA
:101ADC0000E00020BDE8F88360B310B5044690F830
:101AEC00413013B3242384F841302268D36823F4A3
:101AFC000053D3602046FFF761FF2268136923F47B
:101B0C00904313612268536923F02A0353612268BE
:101B1C00D36843F40053D36000206064202384F81E
:101B2C00413084F84230606310BD80F84030FEF7DD
:101B3C0069FCD7E7012070472DE9F04182B01E46C1
:101B4C0090F84130DBB2202B4BD104460D46904629
:101B5C0000294AD00AB9012044E000234364212320
:101B6C0080F84130FEF752FD0746A4F82480A4F813
:101B7C002680A368B3F5805F02D04FF000080FE019
:101B8C002369FBB14FF000080AE038F8023B2268E9
:101B9C00C3F308035360E28C92B2013A92B2E2842E
:101BAC00E38C9BB28BB100963B46002280212046F1
:101BBC00FFF74EFFD8B9002DE7D015F8012B23689D
:101BCC005A60E8E7A8460025EAE700963B46002263
:101BDC0040212046FFF73CFF58B9202384F84130C0
:101BEC0000E0022002B0BDE8F0810120FAE70320FA
:101BFC00F8E70320F6E72DE9F04182B01E4690F895
:101C0C004230DBB2202B53D104460D4690460029BE
:101C1C0052D00AB901204CE000234364222280F800
:101C2C0042200363FEF7F2FC0746A4F82C80A4F8CC
:101C3C002E80A368B3F5805F02D04FF0000817E048
:101C4C00236913B14FF0000812E0A84600250FE0FD
:101C5C0023685B68C3F3080328F8023B03E023689E
:101C6C005B682B700135E28D92B2013A92B2E2853B
:101C7C00E38D9BB2BBB100963B460022202120464F
:101C8C00FFF7E6FED0B9002DE2D0A368B3F5805F74
:101C9C00E5D013B92369002BE1D023685B6803F00E
:101CAC007F032B70DEE7202384F84230002000E015
:101CBC00022002B0BDE8F0810120FAE70320F8E72A
:101CCC00704700F17843B3F5803F06D900F16040CE
:101CDC00B0F5A04F03D800207047002070470620B5
:101CEC0070474FF0FF3070474FF0FF3070474FF0A8
:101CFC00FF3070474FF0FF3070474FF0FF307047A8
:101D0C00BFF34F8F0549CA6802F4E062044B1343DA
:101D1C00CB60BFF34F8F00BFFDE700BF00ED00E0CD
:101D2C000400FA0508B5084B1B69B3F1FF3F05D059
:101D3C00012211460548FFF731FE08BD00220121A2
:101D4C000248FFF72BFEF8E7008000084400002053
:101D5C00B8B170B50C46064691B10B7843704B7810
:101D6C0083708D78C5702A460331043000F07CFAFC
:101D7C00EB1CE358C6F8043207356359C6F8083231
:101D8C0070BD704788B138B50C46014604B938BDF2
:101D9C00064D2246284600F067FA4FF0FF332246E4
:101DAC0029460348FFF7C8FEF1E7704710030020EF
:101DBC005800002000B583B000238DF804308DF856
:101DCC000500022101A8FFF7DDFF03B05DF804FB5D
:101DDC0000B583B001238DF804308DF80500022185
:101DEC0001A8FFF7CFFF03B05DF804FB10B592B06C
:101DFC00482422460649684600F036FA2046FFF78A
:101E0C00E7FF21466846FFF7BDFF002012B010BD6A
:101E1C00F822000808B50320FFF7DAFF0321024877
:101E2C00FFF7B0FF002008BD0C00002008B50F2004
:101E3C00FFF7CEFF0F210248FFF7A4FF002008BDDB
:101E4C001000002000B583B0FEF7E6FB01900420E3
:101E5C00FFF7BEFF04210DEB0100FFF793FF4FF0DE
:101E6C00FF3003B05DF804FB00B589B06846FFF79E
:101E7C0019FB9DF810308DF81F300120FFF7A8FFDB
:101E8C0001210DF11F00FFF77DFF002009B05DF867
:101E9C0004FB10B586B0412837D811D0C0F14003EF
:101EAC00DBB28B4200D30B460022029205938002D8
:101EBC0040F0006000F17843B3F5803F0CD9FEE7A9
:101ECC00022302930123039300230193FFF716FAD5
:101EDC0048B14FF0FF3419E00490B3F5C84FF1D876
:101EEC004FF0FF3412E001A902A8FFF7FBFA48B942
:101EFC00019BB3F1FF3F03D00124FFF719FA05E072
:101F0C000024FAE74FF0FF3400E00124204606B02D
:101F1C0010BD08B541780078FFF7BBFF00B1012078
:101F2C0008BDF0B5C1B004460768057900210091E1
:101F3C00FC2201A800F0A6F92A46611D684600F0B3
:101F4C0093F93846FFF7BDFE28B1062606B10126E7
:101F5C00304641B0F0BDADB20646FFF7CFF90028D0
:101F6C00F4D100246B1E9C4212D21DF8043004F5EF
:101F7C0080726A4412F8FF2C43EA022200233919BA
:101F8C000120FFF713FA10B90234A4B2EAE70126D4
:101F9C00FFF7CEF90028D9D00126D7E708B572B6DD
:101FAC00164C002203212046FFF7F8FC01221146B3
:101FBC002046FFF7F3FC012202212046FFF7EEFC3E
:101FCC002022FF210E4800F05DF900254FF0E023A0
:101FDC001D610C4C636843F0007363602022FF2189
:101FEC00094800F04FF9094BA3601A685C6882F34A
:101FFC00088885F31488FEF72DFBA04744000020C9
:10200C0080E100E000ED00E080E200E000800008EC
:10201C0008B5FFF7C3FF08B583780E2B35D8DFE87A
:10202C0003F00B0E1114171A1E2225292C2F08341D
:10203C003200FFF7DBFE08BDFFF7ECFEFBE7FFF716
:10204C00F5FEF8E7FFF7FEFEF5E7FFF70DFFF2E709
:10205C000430FFF7DDFF0430FFF75BFFEBE70430E4
:10206C00FFF75FFFE7E7FFF73CFEE4E70430FFF71D
:10207C003EFEE0E7FFF73EFEDDE7FFF73EFEDAE768
:10208C00FFF732FED7E7FFF73BFE4FF0FF30D2E70A
:10209C00F0B5ADF5057D4FF40372002101A800F0F9
:1020AC00F1F83B4C4FF400720021204600F0EAF8A6
:1020BC004FF0FF33012221463648FFF79CFD20B13B
:1020CC00012420460DF5057DF0BD214611F8012BAC
:1020DC00D2B28DF804204FF0FF332E48FFF78BFD62
:1020EC00054608B10124ECE7611C01A8FFF730FE9E
:1020FC00839F9DF80460043EF6B22C4600200AE053
:10210C00234B23445B780093012269462248FEF757
:10211C001AFA0134E4B2A642F2D81F4B1A6893683B
:10212C0043F001039360874205D00424042CC8D0EB
:10213C004FF0FF300CE00024F8E701AB2B441B7987
:10214C000093012269461448FEF7FDF90135EDB202
:10215C009DF807309D42F0D30F4B1A68936843F0FB
:10216C0001039360829B83420CD00424042CA8D0DE
:10217C0001A8FFF750FF044630B10120FFF71AFE0B
:10218C0001249EE70024F1E70020FFF721FE98E7E9
:10219C0010010020580000203C00002008B503214D
:1021AC000B48FFF703FC68B103210948FFF7FEFB5E
:1021BC00012804D001210648FFF7F8FB28B9FFF7E6
:1021CC0067FF08BDFFF7AEFDEEE7FFF7E7FE00BFC8
:1021DC0044000020FFF774FD0B480C490C4A002307
:1021EC0002E0D458C4500433C4188C42F9D3094AC1
:1021FC00094C002301E013600432A242FBD300F02F
:10220C000FF8FDF7E5FF70470000002020000020CC
:10221C00482300082000002010040020FEE70000E6
:10222C0070B500260C4D0D4C641BA410A64209D1B0
:10223C0000F030F800260A4D0A4C641BA410A6428C
:10224C0005D170BD55F8043B98470136EEE755F8BB
:10225C00043B98470136F2E740230008402300086E
:10226C0040230008442300080A44914200F1FF3344
:10227C0000D1704710B511F8014B914203F8014F92
:10228C00F9D110BD03460244934200D1704703F8C4
:10229C00011BF9E7F8B500BFF8BC08BC9E467047B7
:0C22AC00F8B500BFF8BC08BC9E467047A7
:1022B80002030405060708090A0B0C0D0E0F10107F
:1022C8000102000002030405060708090A0B0C0DA9
:1022D8000E0F1010010200000000000000000000B6
:1022E80001020304060708090000000001020304B4
:1022F8005468697320626F6F746C6F6164657220D3
:102308006973206D616465206279204D6F68616D25
:1023180065642041736872616620577820436F7046
:102328007972696768742028432920577820496E94
:08233800632C20323032330027
:04234000310100085F
:042344000D0100087F
:1023480001000000100000000024F400010000005B
:10235800000102030405060708090A0B0000000033
:04000005080021E1ED
:00000001FF
