:020000040800F2
:100000000050002039270008F90400080105000805
:1000100003050008050500080705000800000000AA
:1000200000000000000000000000000009050008BA
:100030000B050008000000000D0500080F05000872
:1000400081270008812700088127000881270008F0
:1000500081270008812700088127000881270008E0
:1000600081270008812700088127000881270008D0
:1000700081270008812700088127000881270008C0
:1000800081270008812700088127000881270008B0
:1000900081270008812700088127000881270008A0
:1000A0008127000881270008812700088127000890
:1000B0008127000881270008812700088127000880
:1000C0008127000881270008812700088127000870
:1000D0008127000881270008812700088127000860
:1000E0008127000881270008812700080000000000
:1000F0000000000000000000000000000000000000
:0C01000000000000000000005FF808F1A3
:10010C0010B5054C237833B9044B13B10448AFF345
:10011C0000800123237010BD880000200000000027
:10012C002031000808B5034B1BB103490348AFF35A
:10013C00008008BD000000008C0000202031000869
:10014C00034613F8012B002AFBD1181A013870470B
:10015C0072B6FEE700B595B0282200210DEB020027
:10016C0002F03CFB00230593069307930893099335
:10017C00019302930393049309230A934FF480335E
:10018C000B9301220E9210920222119212934FF4B1
:10019C00E01313930AA800F0E1FAD8B90F230593E2
:1001AC0002210691002307934FF480620892099371
:1001BC0005A800F00BFD78B9012301934FF40073EF
:1001CC00029301A800F0F0FD40B900F0CFFC15B08F
:1001DC005DF804FBFFF7BCFFFFF7BAFFFFF7B8FFB2
:1001EC0008B500F0FFF9FFF7B5FF00F00BF800F0D1
:1001FC0059F800F0DBF800F0F3F800F079F802F0B1
:10020C0069FAFCE710B588B00023049305930693B4
:10021C00079303F1804303F504339A6942F010020B
:10022C009A619A6902F010020092009A9A6942F05F
:10023C0020029A619A6902F020020192019A9A694D
:10024C0042F004029A619A6902F004020292029A44
:10025C009A6942F008029A619B6903F008030393C0
:10026C00039B4FF4604304930324059404A90A48A8
:10027C0000F092FE4FF6F3130493059404A907487B
:10028C0000F08AFE4FF6FF730493059404A904480A
:10029C0000F082FE08B010BD0010014000080140C3
:1002AC00000C014008B50548054B036000F046F909
:1002BC0000B908BDFFF74CFFFBE700BFA40000200E
:1002CC00003002400268094B9A4200D0704782B05D
:1002DC00A3F500535A6942F040025A615B6903F07E
:1002EC0040030193019B02B0704700BF00300240F5
:1002FC0000B583B00023ADF804308DF806300093C0
:10030C001848194A02604FF0FF324260836001F0D6
:10031C00F7FAE8B900228DF804208DF805208DF845
:10032C00062001A90F4801F004FAA0B901238DF8A9
:10033C0000308DF801308DF8023000228DF803204A
:10034C006946084801F056FA40B903B05DF804FB61
:10035C00FFF7FEFEDEE7FFF7FBFEE7E7FFF7F8FE31
:10036C00F3E700BFAC0000200028004002680C4BF3
:10037C009A4200D0704700B583B000F07DFF094B66
:10038C00DA6942F00062DA61DB6903F00063019321
:10039C00019B054B0122C3F83C2403B05DF804FB20
:1003AC0000280040001002400000424208B50A48F4
:1003BC000A4B03604FF4E133436000238360C36056
:1003CC0003610C2242618361C36101F08FFB00B9B0
:1003DC0008BDFFF7BDFEFBE7C00000200038014060
:1003EC0008B50A480A4B03600A4B4360002383603C
:1003FC00C36003610C2242618361C36101F076FB2F
:10040C0000B908BDFFF7A4FEFBE700BF0801002000
:10041C000044004060E3160010B588B0002304933C
:10042C0005930693079303682C4A934204D02C4AF5
:10043C0093422BD008B010BD2A4B9A6942F48042EB
:10044C009A619A6902F480420092009A9A6942F089
:10045C0004029A619B6903F004030193019B4FF41E
:10046C000073049302230593032307931E4C04A9E2
:10047C00204600F091FD4FF4806304930023059314
:10048C00069304A9204600F087FDD3E7154BDA69E3
:10049C0042F40032DA61DA6902F400320292029A12
:1004AC009A6942F004029A619B6903F00403039376
:1004BC00039B0423049302230593032307930A4C01
:1004CC0004A9204600F068FD08230493002305933B
:1004DC00069304A9204600F05FFDABE7003801400D
:1004EC0000440040001002400008014008B500F034
:1004FC004BFCFEE7FEE7FEE7FEE7FEE770477047C2
:10050C00704708B500F080F808BD000082B00A4BB7
:10051C009A6942F001029A619A6902F00102009212
:10052C00009ADA6942F08052DA61DB6903F0805399
:10053C000193019B02B070470010024058B110B5F6
:10054C00044643791BB101236371002010BD037174
:10055C00FFF7B8FEF7E7012070478446022343718A
:10056C000023934211D200B5DCF8000051F823E0CF
:10057C00C0F800E001339342F6D3DCF80030186881
:10058C0001238CF805305DF804FB0368186801231F
:10059C008CF805307047000010B504460E4B1878E7
:1005AC004FF47A73B3FBF0F30C4A1068B0FBF3F022
:1005BC0000F04EFE68B90F2C01D901200AE0002290
:1005CC0021464FF0FF3000F00BFE054B1C60002065
:1005DC0000E0012010BD00BF00000020080000203A
:1005EC000400002008B5074A136843F01003136099
:1005FC00032000F0E3FD0F20FFF7CEFFFFF786FF8F
:10060C00002008BD00200240034A1168034B1B78F0
:10061C000B441360704700BF500100200000002005
:10062C00014B1868704700BF50010020024B18683E
:10063C00C0F30B00704700BF002004E082B0084BF1
:10064C001B68084AA2FB03235B0A00FB03F301931C
:10065C0000BF019B5A1E0192002BF9D102B07047CA
:10066C0008000020D34D621070B5FFF7D9FF044687
:10067C00364A136843F001031360344B1B6813F0C4
:10068C00020F07D1FFF7CCFF001B0228F5D903247A
:10069C00204670BD2D4D2B6823F0F80343F08003EA
:1006AC002B60FFF7BDFF044600236B60274B5B6894
:1006BC0013F00C0F08D0FFF7B3FF001B41F2883387
:1006CC009842F3D90324E3E7214B224A1A60224BC8
:1006DC001868FFF761FF044608B10124D8E7FFF75B
:1006EC009FFF0546194A136823F080731360174B5C
:1006FC001B6813F0007F06D0FFF792FF401B022807
:10070C00F5D90324C4E7114E00237360FFF788FF6B
:10071C000546336823F4102333600C4B1B6813F429
:10072C00003F06D0FFF77CFF401B6428F5D903245B
:10073C00AEE7064B1A6822F480221A605A6A42F01D
:10074C0080725A6200229A60A2E700BF0010024039
:10075C000800002000127A0004000020002800F09D
:10076C00F18170B582B00446036813F0010F2CD0F0
:10077C00994B5B6803F00C03042B1DD0964B5B6804
:10078C0003F00C03082B12D06368B3F5803F41D003
:10079C00002B55D103F1804303F504331A6822F47E
:1007AC0080321A601A6822F480221A6037E08A4B71
:1007BC005B6813F4803FE7D0874B1B6813F4003F52
:1007CC0003D06368002B00F0BF81236813F0020F85
:1007DC0075D0814B5B6813F00C0F5FD07E4B5B6860
:1007EC0003F00C03082B54D02369002B00F08A80F3
:1007FC007A4B01221A60FFF713FF0546764B1B68F4
:10080C0013F0020F75D1FFF70BFF401B0228F5D92F
:10081C0003209EE1704A136843F4803313606368CD
:10082C0043B3FFF7FDFE05466B4B1B6813F4003F0B
:10083C00CBD1FFF7F5FE401B6428F5D9032088E1E6
:10084C00B3F5A02F09D0644B1A6822F480321A60D9
:10085C001A6822F480221A60E1E703F18043A3F5C1
:10086C003C331A6842F480221A601A6842F48032CF
:10087C001A60D4E7FFF7D4FE0546574B1B6813F4F8
:10088C00003FA2D0FFF7CCFE401B6428F5D9032013
:10089C005FE1514B5B6813F4803FA5D14E4B1B6855
:1008AC0013F0020F03D02369012B40F04F814A4A09
:1008BC00136823F0F803616943EAC10313602368EA
:1008CC0013F0080F33D0A369002B5CD0434B0122EB
:1008DC00C3F88024FFF7A4FE05463F4B5B6A13F078
:1008EC00020F21D1FFF79CFE401B0228F5D90320F3
:1008FC002FE1394A136823F0F803616943EAC10315
:10090C001360DCE7354B00221A60FFF789FE0546C1
:10091C00314B1B6813F0020FD1D0FFF781FE401B47
:10092C000228F5D9032014E10120FFF787FE236884
:10093C0013F0040F00F09680274BDB6913F0805FF7
:10094C0034D1254BDA6942F08052DA61DB6903F06D
:10095C0080530193019B0125214B1B6813F4807F6D
:10096C0026D0E368012B3DD0002B53D103F18043FB
:10097C0003F504331A6A22F001021A621A6A22F091
:10098C0004021A6233E0154B0022C3F88024FFF7EF
:10099C0047FE0546104B5B6A13F0020FC7D0FFF7FA
:1009AC003FFE401B0228F5D90320D2E00025D3E7F7
:1009BC000B4A136843F480731360FFF731FE06464D
:1009CC00074B1B6813F4807FCBD1FFF729FE801BEC
:1009DC006428F5D90320BCE000100240000042421C
:1009EC00007000405F4A136A43F001031362E3682E
:1009FC0033B3FFF715FE06465A4B1B6A13F0020F72
:100A0C002FD1FFF70DFE801B41F288339842F3D9AA
:100A1C0003209EE0052B09D0524B1A6A22F00102EA
:100A2C001A621A6A22F004021A62E0E74D4B1A6A43
:100A3C0042F004021A621A6A42F001021A62D6E704
:100A4C00FFF7EEFD0646474B1B6A13F0020F08D06A
:100A5C00FFF7E6FD801B41F288339842F3D903205F
:100A6C0077E0E5B9E369002B72D03E4A526802F098
:100A7C000C02082A56D0022B17D03B4B00221A66C8
:100A8C00FFF7CEFD0446374B1B6813F0007F47D0B1
:100A9C00FFF7C6FD001B0228F5D9032059E0314AA7
:100AAC00D36923F08053D361DCE72F4B00221A6605
:100ABC00FFF7B6FD05462B4B1B6813F0007F06D0E5
:100ACC00FFF7AEFD401B0228F5D9032041E0236A55
:100ADC00B3F5803F1AD023494B6823F47413226A70
:100AEC00606A024313434B601F4B01221A66FFF7E7
:100AFC0097FD04461B4B1B6813F0007F0ED1FFF7CC
:100B0C008FFD001B0228F5D9032022E0154A5368FB
:100B1C0023F40033A1680B435360DCE7002018E09A
:100B2C00002016E0012B16D00E4B5B6803F48031CD
:100B3C00226A914211D103F47013626A93420ED16E
:100B4C00002006E001207047012002E0012000E0B7
:100B5C00002002B070BD0120FBE70120F9E7012065
:100B6C00F7E700BF0010024000004242014B012297
:100B7C00DA647047000042420F4B5B6803F00C02D2
:100B8C00082A01D00D487047C3F383420C49885C96
:100B9C0013F4803F0BD0084B5B68C3F34043094A06
:100BAC00D35C064A02FB00F0B0FBF3F07047064B37
:100BBC0003FB00F0704700BF0010024000127A00E7
:100BCC00383100084831000800093D00002800F0C9
:100BDC00A08070B50D460446524B1B6803F007030A
:100BEC008B420BD24F4A136823F007030B4313605D
:100BFC00136803F007038B4240F08D80236813F0D9
:100C0C00020F17D013F0040F04D0474A536843F473
:100C1C00E0635360236813F0080F04D0424A536812
:100C2C0043F460535360404A536823F0F003A168C7
:100C3C000B435360236813F0010F31D06368012B11
:100C4C0020D0022B25D0384A126812F0020F64D043
:100C5C0035494A6822F0030213434B60FFF7E0FC6E
:100C6C000646314B5B6803F00C036268B3EB820FF2
:100C7C0016D0FFF7D5FC801B41F288339842F0D98F
:100C8C00032045E0284A126812F4003FE0D101200D
:100C9C003EE0254A126812F0007FD9D1012037E0DE
:100CAC00204B1B6803F00703AB420AD91D4A13689B
:100CBC0023F007032B431360136803F00703AB42C5
:100CCC002DD1236813F0040F06D0174A536823F470
:100CDC00E063E1680B435360236813F0080F07D0FF
:100CEC00114A536823F46053216943EAC1035360EA
:100CFC00FFF742FF0C4B5B68C3F303130B4AD35C47
:100D0C00D8400B4B18600B4B1868FFF745FC0020C4
:100D1C0070BD012070470120FAE70120F8E701209F
:100D2C00F6E700BF002002400010024060310008CE
:100D3C000800002004000020014B1868704700BF19
:100D4C000800002008B5FFF7F7FF044B5B68C3F3FE
:100D5C000223034AD35CD84008BD00BF00100240F8
:100D6C007031000808B5FFF7E7FF044B5B68C3F36D
:100D7C00C223034AD35CD84008BD00BF0010024018
:100D8C00703100087047000008B5064B9B6813F0E3
:100D9C00800F00D108BDFFF7F5FF024B80229A723D
:100DAC00F8E700BF0010024070B582B0044603683B
:100DBC0013F0010F36D03F4BDB6913F0805F49D144
:100DCC003C4BDA6942F08052DA61DB6903F0805304
:100DDC000193019B0125384B1B6813F4807F3BD09A
:100DEC00344B1B6A13F4407313D0626802F44072E4
:100DFC009A420ED02F4A136A23F440702F490126D1
:100E0C00C1F840640026C1F84064106213F0010F71
:100E1C0036D1284A136A23F4407361680B4313627A
:100E2C00002D3ED1236813F0020F06D0214A5368DF
:100E3C0023F44043A1680B435360236813F0100F55
:100E4C0034D01C4A536823F48003E1680B4353608D
:100E5C0000202CE00025BEE7174A136843F480738A
:100E6C001360FFF7DDFB0646134B1B6813F4807F02
:100E7C00B6D1FFF7D5FB801B6428F5D9032016E00B
:100E8C00FFF7CEFB06460B4B1B6A13F0020FC0D1CB
:100E9C00FFF7C6FB801B41F288339842F3D903203D
:100EAC0005E0D36923F08053D361BBE7002002B087
:100EBC0070BD00BF001002400070004000004242B4
:100ECC0008B502284ED0102803D0012828D00020C5
:100EDC0008BD2B4B5A68186810F08070F8D0C2F31C
:100EEC0083432849C85C12F4803F15D0244B5B68BF
:100EFC00C3F34043244AD25C244BB3FBF2F303FB11
:100F0C0000F01F4B5B6813F4800FE1D14000204BC5
:100F1C00A3FB00304008DBE71E4B03FB00F0F0E7BF
:100F2C00174B1B6A40F202321A40B2F5817F24D073
:100F3C0003F44073B3F5007F04D0B3F5407F09D0C0
:100F4C000020C5E70E4A526A12F0020FF5D049F69E
:100F5C004040BDE70A4B186810F40030B8D04FF28F
:100F6C002440B5E7FFF7FEFE054B5B68C3F3813306
:100F7C0001335B00B0FBF3F0AAE74FF40040A7E7A6
:100F8C00001002404C3100085C31000800127A005D
:100F9C00ABAAAAAA00093D0070B582B00024A446F1
:100FAC00A6E0804DAA4210D007D97F4DAA420CD0A2
:100FBC0005F58035AA4208D013E0A5F58015AA42A4
:100FCC0003D005F57025AA4207D18A68002A58D0AB
:100FDC00012A51D04361082403E0A5F58015AA42EB
:100FEC00F3D0BEF1FF0F4ED80646BEF1FF0F4CD822
:100FFC004FEA8C0233680F25954023EA050304FA67
:10100C0002F2134333604B6813F0805F6ED0674B72
:10101C009A6942F001029A619B6903F00103019302
:10102C00019B4FEA9C02951C614B53F825600CF018
:10103C0003039D000F23AB4026EA03065D4B984249
:10104C0029D003F58063984200F08E8003F580630D
:10105C00984200F08B8003F58063984219D00423EA
:10106C001AE0CC68BDE7CC680434BAE7CC68083425
:10107C00B7E7CC680C34B4E703610824B1E700246B
:10108C00AFE70424ADE7061DAFE7ACF10802920010
:10109C00B0E7032300E00023AB4033430232444D5E
:1010AC0045F822304B6813F4801F61D0424A936894
:1010BC0043EA0E0393604B6813F4001F5ED03E4A64
:1010CC00D36843EA0E03D3604B6813F4003F5BD044
:1010DC00394A536843EA0E0353604B6813F4803F5C
:1010EC0058D0354A136843EA0E0313600CF1010C17
:1010FC000A6832FA0CF353D0012303FA0CF302EA18
:10110C00030E33EA0202F1D14A68122A3FF649AFC4
:10111C00122A3FF666AF01A555F822F0D70F00084A
:10112C006F100008791000088B100008EF0F0008F2
:10113C00EF0F0008EF0F0008EF0F0008EF0F00088B
:10114C00EF0F0008EF0F0008EF0F0008EF0F00087B
:10115C00EF0F0008EF0F0008EF0F0008EF0F00086B
:10116C00731000087F100008012395E7022393E712
:10117C00114A936823EA0E0393609CE70E4AD368E6
:10118C0023EA0E03D3609FE70B4A536823EA0E034E
:10119C005360A2E7084A136823EA0E031360A5E71D
:1011AC0002B070BD0000221000003110001002408F
:1011BC00000001400008014000040140074AD368C8
:1011CC0023F4E0631B041B0C000200F4E0600343F7
:1011DC0043F0BF6343F40033D360704700ED00E08D
:1011EC0000B5194BDB68C3F30223C3F1070CBCF148
:1011FC00040F28BF4FF0040C03F1040EBEF1060FD0
:10120C0018D9033B4FF0FF3E0EFA0CFC21EA0C01FF
:10121C0099400EFA03F322EA0303194300280BDB6F
:10122C000901C9B200F1604000F5614080F800137B
:10123C005DF804FB0023E5E700F00F000901C9B2DB
:10124C00024B1954F4E700BF00ED00E014ED00E090
:10125C000138B0F1807F0BD24FF0E0235861054A82
:10126C00F02182F823100020986107221A61704740
:10127C000120704700ED00E0014B01221A6270471B
:10128C0000000E42044B0022DA61044A136943F059
:10129C0001031361018070475801002000200240B7
:1012AC00194BDB6813F0100305D0184AD36943F0CF
:1012BC000203D3611023144AD26812F0040F06D033
:1012CC001249CA6942F00102CA6143F004030E4A92
:1012DC00D26912F0010F09D00C49CA6942F004021C
:1012EC00CA610949CA6922F00102CA6140F20112BD
:1012FC00934202D0044AD3607047034AD36923F067
:10130C000103D361704700BF002002405801002048
:10131C000A4B1B6913F0800F0BD0084B084A5A601C
:10132C0002F188325A601B6913F0800F03D1002040
:10133C007047002070470120704700BF002002401A
:10134C0023016745034A136943F0800313610020AE
:10135C00704700BF0020024038B50446FFF760F923
:10136C000546164BDB6813F0010F0AD0B4F1FF3FB2
:10137C00F7D024B1FFF754F9401BA042F1D9032058
:10138C001BE00E4BDB6813F0200F02D00B4B20221E
:10139C00DA600A4BDB6813F0100F0BD1074BDB69DB
:1013AC0013F0010F06D1054BDB6813F0040F01D1CC
:1013BC00002002E0FFF774FF012038BD002002403E
:1013CC002DE9F8431E46244B1B7E012B41D00446CD
:1013DC000F469046204B01221A764CF25030FFF704
:1013EC00BBFF034678BB012C08D0022C03D04FF076
:1013FC0004091C4607E04FF00209FAE74FF0010917
:10140C00F7E70134E4B24C451DD22101C1F12002B1
:10141C00A1F1200328FA01F106FA02F2114326FA8F
:10142C0003F3194389B207EB4400FFF72BFF4CF28F
:10143C005030FFF791FF094B1D6925F001051D6127
:10144C0003460028DDD0044A002111761846BDE879
:10145C00F8830223FAE700BF580100200020024065
:10146C00064B0022DA61064B1A6942F004021A613B
:10147C001A6942F040021A61704700BF58010020FF
:10148C0000200240014B186A704700BF0020024048
:10149C00044BDB6913F0020F01D000207047A5202C
:1014AC00704700BF00200240024BD869C0F3820095
:1014BC00704700BF0020024010B5044607230360AC
:1014CC00FFF7E0FFA060FFF7E3FF2074FFF7ECFFEE
:1014DC00607410BD064B0022DA61064B1A6942F0AB
:1014EC0002021A6158611A6942F040021A6170478F
:1014FC005801002000200240264B1B7E012B46D0B9
:10150C0070B505460E46234B01221A760368022B52
:10151C0020D04CF25030FFF71FFF90BB4FF0FF3341
:10152C003360AC680121EA68AB6803EB8223A34209
:10153C0028D92046FFF7CEFF4CF25030FFF70CFFB6
:10154C00154A136923F0020313610146B8B904F577
:10155C008064E8E74CF25030FFF7FEFE08B1012141
:10156C0010E00120FFF77CFF4CF25030FFF7F4FE47
:10157C000146094A136923F00403136102E0346045
:10158C0000E00121034B00221A76084670BD0221AF
:10159C0008467047580100200020024010B4026831
:1015AC0094691FFA84FCD369916988B2844505D08B
:1015BC00D06980B240EA014010BC704798B240EA52
:1015CC000440F9E70368186A5B6A9BB243EA00407F
:1015DC007047030903EB830300F00F0000EB43009B
:1015EC00C0B2704700F5FA6C022921D801EB410317
:1015FC00C1EBC3011E4BA3FB011302EB530363446A
:10160C0000F2CF7003EB90031A4AA2FB0020A3EB6D
:10161C00501303EBD01304331748A0FB03201A1A02
:10162C0000EB52008008C0EBC000181AC0B2704723
:10163C0001EB4103C1EBC3010D4BA3FB011302EB07
:10164C005303634403EB9C030A4AA2FB0C2CA3EB4D
:10165C005C1303EBDC1302330748A0FB03201A1ABC
:10166C0000EB52008008C0EBC000181ADEE700BF88
:10167C00398EE3381F85EB512549922438B5044641
:10168C00FEF7CEFF054623685A6812F0200F07D1EB
:10169C00FEF7C6FF401BB0F57A7FF4D9032004E0B7
:1016AC005A6842F010025A60002038BD38B5044622
:1016BC000268536823F010035360FEF7B1FF054630
:1016CC0023685B6813F0200F07D1FEF7A9FF401BBE
:1016DC00B0F57A7FF4D9032000E0002038BD38B58E
:1016EC0005460C46FFF7CAFF08B1012038BD2B6830
:1016FC00220C9A612B68A4B2DC612846FFF7D6FF56
:10170C000028F3D00120F1E738B505460C46FFF769
:10171C00B5FF08B1012038BD2B68220C1A622B686A
:10172C00A4B25C622846FFF7C1FF0028F3D0012069
:10173C00F1E770B5002857D00D460646002955D064
:10174C00037C012B54D00123037402234374BAB9D4
:10175C0008784B78C3EB03139C004FF4616303FBD5
:10176C0000448878044421463046FFF7B8FF05460C
:10177C00C8B104237374002333740125284670BD4B
:10178C000878FFF726FF4FF4616400FB04F46878D7
:10179C00FFF71FFFC0EB001004EB8004A878FFF7E5
:1017AC0018FF0444DFE73268536823F005035360E5
:1017BC003046FFF707FFB0F1FF3F01D0844204D859
:1017CC000123737400233374D8E700F5A83101F5B5
:1017DC00C0713046FFF798FF0028F1D004237374D2
:1017EC00002333740125C9E70125C7E70125C5E7A7
:1017FC000225C3E700285AD038B50D460446002907
:10180C0057D0037C012B56D001230374022343745D
:10181C00BAB9CB78C3734B7843738B788373A27B41
:10182C00617BE07BFFF7DEFE207328702046FFF71C
:10183C00B5FE224B984211D801236374002020740A
:10184C0038BDC878FFF7C5FEE0736878FFF7C1FEB6
:10185C006073A878FFF7BDFEA073E0E7184DA5FBF9
:10186C0000352D0C174B03FB150529462046FFF7B9
:10187C0036FF28B104236374002323740120DFE7AF
:10188C002046FFF79FFEB0F1FF3FD5D08542D3D95C
:10189C0000F5A83101F5C0712046FFF735FF00288F
:1018AC00CAD004236374002323740120C8E70120E9
:1018BC0070470120C4E70220C2E700BF8F5F010020
:1018CC0007452EC280510100C0B138B505460268EB
:1018DC00536823F008035360FEF7A2FE04462B68FE
:1018EC005B6813F0080F07D1FEF79AFE001BB0F5EA
:1018FC007A7FF4D9032000E0002038BD0120704726
:10190C00002850D010B50446437C4BB102236374BD
:10191C002046FFF7D9FF38B104236374012010BDB2
:10192C000374FEF723FDF1E72046FFF7A7FE28BB63
:10193C002268536823F007035360A36823B11B4A42
:10194C00136B23F001031363184AD36A23F46073F7
:10195C00A1680B43D3626368B3F1FF3F12D02268D6
:10196C00C3F30341916022689BB2D3602046FFF71A
:10197C009DFE88B1042363740120D0E704236374B3
:10198C000120CCE70120FFF79BFA08B1431EE6E7E4
:10199C00042363740120C2E70023E3730123637300
:1019AC00A3736374BBE70120704700BF006C004059
:1019BC00890001F1804101F5D84192B20A6070476B
:1019CC00890001F1804101F5D841086880B2704767
:1019DC0010B504460268136923F44053C1680B43E5
:1019EC00136183680269134342691A430168CB6827
:1019FC0023F4B05323F00C031343CB6002685369F8
:101A0C0023F4407381690B4353610268134B9A4270
:101A1C0020D0FFF797F9024602EB820202EB82021A
:101A2C0063689B00B2FBF3F20D48A0FB023149093D
:101A3C00642303FB11231B013233A0FB03235B093B
:101A4C0003F0F00202EB011203F00F0321681344C0
:101A5C008B6010BDFFF786F90246DDE700380140C8
:101A6C001F85EB512DE9F84305460F46164699465E
:101A7C00DDF820802C68246837EA04030CBF4FF093
:101A8C00010C4FF0000CB4452DD1B8F1FF3FF1D053
:101A9C00B8F1000F05D0FEF7C3FDA0EB09004045DF
:101AAC00E8D92A6802F10C0353E8003F23F4D07301
:101ABC000C3242E800310029F3D12A6802F11403F8
:101ACC0053E8003F23F00103143242E800310029AF
:101ADC00F3D1202385F8413085F84230002385F876
:101AEC004030032000E00020BDE8F88360B310B55F
:101AFC00044690F8413013B3242384F84130226813
:101B0C00D36823F40053D3602046FFF761FF2268AB
:101B1C00136923F4904313612268536923F02A0359
:101B2C0053612268D36843F40053D360002060648F
:101B3C00202384F8413084F84230606310BD80F873
:101B4C004030FEF769FCD7E7012070472DE9F041E2
:101B5C0082B01E4690F84130DBB2202B4BD10446AC
:101B6C000D46904600294AD00AB9012044E00023D2
:101B7C004364212380F84130FEF752FD0746A4F858
:101B8C002480A4F82680A368B3F5805F02D04FF0C0
:101B9C0000080FE02369FBB14FF000080AE038F8A9
:101BAC00023B2268C3F308035360E28C92B2013A01
:101BBC0092B2E284E38C9BB28BB100963B4600223E
:101BCC0080212046FFF74EFFD8B9002DE7D015F83D
:101BDC00012B23685A60E8E7A8460025EAE700963F
:101BEC003B46002240212046FFF73CFF58B92023FA
:101BFC0084F8413000E0022002B0BDE8F081012001
:101C0C00FAE70320F8E70320F6E72DE9F04182B06C
:101C1C001E4690F84230DBB2202B53D104460D46C1
:101C2C009046002952D00AB901204CE000234364AD
:101C3C00222280F842200363FEF7F2FC0746A4F848
:101C4C002C80A4F82E80A368B3F5805F02D04FF0EF
:101C5C00000817E0236913B14FF0000812E0A84602
:101C6C0000250FE023685B68C3F3080328F8023BE8
:101C7C0003E023685B682B700135E28D92B2013A68
:101C8C0092B2E285E38D9BB2BBB100963B4600223B
:101C9C0020212046FFF7E6FED0B9002DE2D0A36844
:101CAC00B3F5805FE5D013B92369002BE1D023682D
:101CBC005B6803F07F032B70DEE7202384F842304F
:101CCC00002000E0022002B0BDE8F0810120FAE71C
:101CDC000320F8E7704700F17843B3F5803F06D94D
:101CEC0000F16040B0F5A04F03D8002070470020F1
:101CFC007047062070474FF0FF3070474FF0FF30B1
:101D0C0070474FF0FF3070474FF0FF3070474FF087
:101D1C00FF30704708B5084B1B69B3F1FF3F05D086
:101D2C00012211460548FFF743FE08BD00220121A0
:101D3C000248FFF73DFEF8E700800008AC000020E9
:101D4C000FB410B582B004AB53F8042B01930A4CBA
:101D5C008021204600F076FD2046FEF7F1F94FF089
:101D6C00FF3382B221460548FFF7F0FE02B0BDE812
:101D7C00104004B0704700BF78010020080100201B
:101D8C0008B5782240F234510748FFF7D9FFBFF36A
:101D9C004F8F0649CA6802F4E062054B1343CB60CF
:101DAC00BFF34F8F00BFFDE77831000800ED00E076
:101DBC000400FA0570B5002836D00C46064699B3D7
:101DCC000B784370782240F234511B48FFF7B8FF70
:101DDC006378B370782240F234511848FFF7B0FFA3
:101DEC00A378F370782240F234511548FFF7A8FF1E
:101DFC00F5782A46E11C301D00F0E2FC03356359EE
:101E0C00C6F80432782240F234510E48FFF798FF9E
:101E1C00F3780733E358C6F80832782240F234518D
:101E2C000948FFF78DFF05E0782240F2345107484E
:101E3C00FFF786FF70BD00BF083200085032000863
:101E4C0098320008E032000828330008C831000836
:101E5C0038B510B10C46014634B9782240F23451F1
:101E6C000F48FFF76DFF38BD0E4D2246284600F097
:101E7C00A7FC4FF0FF33224629460B48FFF766FEBE
:101E8C0030B1782240F234510848FFF759FFEAE7A5
:101E9C00782240F234510648FFF752FFE3E700BFC7
:101EAC0074330008F8030020C0000020B833000889
:101EBC00F833000800B583B000238DF804308DF89A
:101ECC000500022101A8FFF7C3FF782240F234512C
:101EDC000248FFF735FF03B05DF804FB3834000807
:101EEC0000B583B001238DF804308DF80500022174
:101EFC0001A8FFF7ADFF782240F234510248FFF7FA
:101F0C001FFF03B05DF804FB7C34000810B592B0E1
:101F1C00482422460649684600F052FC2046FFF74A
:101F2C00DFFF21466846FFF793FF002012B010BD7B
:101F3C00C034000808B50320FFF7D2FF0321054881
:101F4C00FFF786FF782240F234510348FFF7F8FE82
:101F5C00002008BD0C0000200835000808B50F2033
:101F6C00FFF7BEFF0F210548FFF772FF782240F202
:101F7C0034510348FFF7E4FE002008BD1000002098
:101F8C006035000800B583B0FEF750FB01900420CB
:101F9C00FFF7A6FF04210DEB0100FFF759FF4FF0EF
:101FAC00FF3003B05DF804FB00B589B06846FFF75D
:101FBC0083FA9DF810308DF81F300120FFF790FF49
:101FCC0001210DF11F00FFF743FF002009B05DF860
:101FDC0004FB000030B589B0412848D8044641289C
:101FEC004FD0C0F14005EDB28D4200D30D460095A7
:101FFC002346782240F234513B48FFF7A1FE0023E0
:10200C0004930795A40244F0006404F17843B3F5FB
:10201C00803F3FD80694B3F5C84F42D901230593AE
:10202C0000230393782240F234513048FFF788FEA6
:10203C00FFF76EF900284ED103A904A8FFF75CFA4C
:10204C0000283FD1039BB3F1FF3F33D0782240F2FD
:10205C0034512748FFF774FE0124FFF773F968B178
:10206C00782240F234512348FFF76AFE06E07822CA
:10207C0040F234512048FFF763FE0124204609B09A
:10208C0030BD782240F234511C48FFF759FE022330
:10209C000493C3E7782240F234511948FFF750FEFD
:1020AC00FEE7782240F234511648FFF749FE4FF014
:1020BC00FF34E3E7782240F234511348FFF740FE37
:1020CC000024CAE7782240F234511048FFF738FE5A
:1020DC004FF0FF34D2E7782240F234510C48FFF72E
:1020EC002FFE4FF0FF34C9E74C3600085437000878
:1020FC00D83700082C380008C03500080C3600080A
:10210C00A0360008F8360008983700087038000828
:10211C00B438000810B541780078FFF75BFF40B188
:10212C00782240F234510748FFF70AFE012420467A
:10213C0010BD0446782240F234510348FFF700FEEC
:10214C00F5E700BFFC3800083C3900082DE9F043E6
:10215C00C3B00446D0F80080077900210291FC221C
:10216C0003A800F03BFB3A46611D02A800F028FBD7
:10217C004046FFF7B0FD00284BD1BFB28146FFF7B8
:10218C00C7F800283ED100247B1E9C422ED202AB05
:10219C001D5D04F584736B4413F8FF3C45EA03257D
:1021AC0008EB040600962B46782240F2345128485E
:1021BC00FFF7C6FD2A46002331460120FFF700F940
:1021CC0050B900962B46782240F234512148FFF743
:1021DC00B7FD0234A4B2D7E700962B46782240F222
:1021EC0034511D48FFF7ACFD4FF00109FFF7AAF879
:1021FC00C0B1782240F234511848FFF7A1FD4FF0DE
:10220C0001090FE0782240F234511548FFF798FD90
:10221C0008E04346782240F234511248FFF790FD13
:10222C004FF00609B9F1000F0BD0782240F234516F
:10223C000D48FFF785FD4FF00109484643B0BDE856
:10224C00F083782240F234510848FFF779FDF4E727
:10225C0080390008183A0008C43900082C380008E6
:10226C00B4380008703A0008C03A0008043B000873
:10227C0008B572B61F48FFF72EFD062833D01E4C4A
:10228C00002203212046FFF793FB01221146204632
:10229C00FFF78EFB012202212046FFF789FB20224B
:1022AC00FF21164800F09AFA00254FF0E0231D613B
:1022BC00134C636843F0007363602022FF211148C4
:1022CC0000F08CFA0B4BA3601A685C6882F30888E8
:1022DC0085F31488FEF7C8F9782240F234510A4885
:1022EC00FFF72EFDA047782240F234510748FFF744
:1022FC0027FDF8E700800008AC00002080E100E03A
:10230C0000ED00E080E200E0443B0008943B000854
:10231C0008B5FFF7ADFF000010B5044683780E2B0F
:10232C0000F28A80DFE803F0111A232C353E485264
:10233C005B656E7708888000782240F23451434800
:10234C00FFF7FEFCFFF7E2FD10BD782240F234519E
:10235C003F48FFF7F5FCFFF7EDFDF5E7782240F27B
:10236C0034513C48FFF7ECFCFFF7F8FDECE7782222
:10237C0040F234513848FFF7E3FCFFF703FEE3E784
:10238C00782240F234513548FFF7DAFCFFF70CFEA7
:10239C00DAE7782240F234513148FFF7D1FC201DA6
:1023AC00FFF7B6FF782240F234512E48FFF7C8FCF5
:1023BC00201DFFF7AFFEC7E7782240F234512A48C0
:1023CC00FFF7BEFC201DFFF7C1FEBDE7782240F2EF
:1023DC0034512648FFF7B4FCFFF78DFCB4E77822A4
:1023EC0040F234512248FFF7ABFC201DFFF789FC6B
:1023FC00AAE7782240F234511E48FFF7A1FCFFF700
:10240C0083FCA1E7782240F234511B48FFF798FC7B
:10241C00FFF77DFC98E7782240F234511748FFF71C
:10242C008FFCFFF76BFC8FE7782240F23451144895
:10243C00FFF786FCFFF7A4FC782240F234511148D8
:10244C00FFF77EFC4FF0FF307EE700BFDC3B00085F
:10245C002C3C00087C3C0008CC3C00081C3D0008CF
:10246C00743D0008C83D00081C3E00086C3E000886
:10247C00C43E0008243F0008743F0008CC3F00080D
:10248C0024400008704000082DE9F041ADF5067DB0
:10249C00002400940123782240F234517848FFF74D
:1024AC004FFC4FF40372214603A800F097F9754DC9
:1024BC004FF400722146284600F090F9782240F241
:1024CC0034517148FFF73CFC4FF0FF330122294691
:1024DC006E48FFF79AFB58B1782240F234516C48A1
:1024EC00FFF72EFC012420460DF5067DBDE8F0819A
:1024FC00644C14F8013BDBB28DF80C30782240F2BE
:10250C0034516448FFF71CFC4FF0FF339DF80C204E
:10251C0021465E48FFF779FB054638B1782240F238
:10252C0034515B48FFF70CFC0124DCE7782240F2C5
:10253C0034515948FFF704FC584903A8FFF73AFCFB
:10254C00859F9DF80C60043EF6B2782240F234511F
:10255C005348FFF7F5FB2C464FF000080BE0494BB6
:10256C0023445B780293012202A94E48FDF7F5FF44
:10257C0080460134E4B2A642F1D84A4B1A689368FB
:10258C0043F0010393604346782240F234514648AD
:10259C00FFF7D6FB474511D0782240F2345143481F
:1025AC00FFF7CEFB0424042C62D0782240F2345185
:1025BC003F48FFF7C5FB4FF0FF3413E0782240F2A1
:1025CC0034513C48FFF7BCFB0024ECE703AB2B4435
:1025DC001B790293012202A93248FDF7BEFF044683
:1025EC000135EDB29DF80F209542EFD32D4B1A68B3
:1025FC00936843F0010393602346782240F23451F0
:10260C002D48FFF79DFB849B9C4218D0782240F20A
:10261C0034512A48FFF794FB0424042C21D003A83E
:10262C00FFF77AFE044690B10120FFF743FC7822B5
:10263C0040F234512248FFF783FB012453E7782200
:10264C0040F234511F48FFF77BFB0024E5E70020E4
:10265C00FFF746FC782240F234511B48FFF770FB21
:10266C0041E7782240F234511848FFF769FB3AE70A
:10267C00782240F234511648FFF762FB33E700BF73
:10268C00B4400008F80100200C410008C0000020F4
:10269C0058410008A0410008F4410008F90100204D
:1026AC0050420008A400002098420008284300086B
:1026BC006C430008E4420008B44300084844000896
:1026CC009444000800440008D84400081C45000845
:1026DC007045000808B5782240F234511048FFF7D5
:1026EC002FFB03210F48FFF76BF998B103210D481D
:1026FC00FFF766F9012804D001210A48FFF760F9B9
:10270C0058B9782240F234510748FFF719FBFFF70C
:10271C00BBFE08BDFFF7FEFAE8E7FFF7A9FD00BF17
:10272C00C0450008AC00002004460008FFF7D2FAB0
:10273C000B480C490C4A002302E0D458C450043313
:10274C00C4188C42F9D3094A094C002301E01360E8
:10275C000432A242FBD300F00FF8FDF741FD7047A5
:10276C000000002084000020A04600088800002003
:10277C000C050020FEE7000070B500260C4D0D4C3A
:10278C00641BA410A64209D100F0C4FC00260A4D1B
:10279C000A4C641BA410A64205D170BD55F8043B2D
:1027AC0098470136EEE755F8043B98470136F2E7B7
:1027BC009846000898460008984600089C46000871
:1027CC000A44914200F1FF3300D1704710B511F863
:1027DC00014B914203F8014FF9D110BD034602445D
:1027EC00934200D1704703F8011BF9E730B514464A
:1027FC00002C05461A469BB005DA8B2303604FF07C
:10280C00FF301BB030BD4FF40273ADF80C300CBF71
:10281C00234604F1FF33029305934FF6FF730091A7
:10282C000491ADF80E3069461E9B00F075F8431C00
:10283C00BCBF8B232B60002CE3D00022009B1A70B2
:10284C00DFE7000007B5009313460A46014603482C
:10285C000068FFF7CBFF03B05DF804FB20000020FD
:10286C002DE9F0478E6882469E420C4690461F46E4
:10287C0038D88A8912F4906F32D0256809690133EF
:10288C00A5EB010965694B4405EB450505EBD575D1
:10289C006D109D4238BF1D46530531D5294600F0B9
:1028AC0061FB064650B90C234FF0FF30CAF80030DC
:1028BC00A38943F04003A381BDE8F0874A46216910
:1028CC00FFF77EFFA38923F4906343F08003A38179
:1028DC0026614E4426603E466561A5EB0905A56060
:1028EC00BE4200D93E4632464146206800F0B8FA56
:1028FC00A36800209B1BA360236833442360DBE7A1
:10290C002A4600F0A3FB06460028E1D15046216977
:10291C0000F0C0FAC7E700002DE9F04F98468B890C
:10292C0007461B060D4614469DB00ED50B6963B9C0
:10293C00402100F017FB2860286120B90C233B6074
:10294C004FF0FF30D1E040236B610023099320232B
:10295C008DF8293030234FF00109CDF80C80DFF8C9
:10296C00A4818DF82A3023469A4613F8012B0AB11C
:10297C00252AF9D1BAEB040B0BD05B46224629462B
:10298C003846FFF76DFF013000F0AA80099A5A44CF
:10299C0009929AF80030002B00F0A28000234FF02F
:1029AC00FF32CDE905230AF1010A049307938DF850
:1029BC0053301A935446052214F8011B514800F069
:1029CC0041FA049AD8B9D00644BF20238DF853306D
:1029DC00110744BF2B238DF853309AF800302A2B63
:1029EC0015D0544600204FF00A0C079A214611F8D6
:1029FC00013B303B092B4ED9B0B1079214E0A0EB50
:102A0C00080309FA03F31343A2460493D2E7039B8A
:102A1C00191D1B680391002BBBBF5B4242F00202E5
:102A2C0007930793B8BF049223782E2B0CD16378AD
:102A3C002A2B35D1039B02341A1D1B680392002BE1
:102A4C00B8BF4FF0FF330593DFF8BCA0032250460C
:102A5C00217800F0F7F940B14023A0EB0A0003FA0B
:102A6C0000F0049B01340343049314F8011B062269
:102A7C0026488DF8281000F0E5F9002838D0244BB2
:102A8C001BBB039B073323F0070308330393099BFA
:102A9C003344099367E70C4601200CFB0232A5E78F
:102AAC0000234FF00A0C194601340593204610F808
:102ABC00012B303A092A03D9002BC5D00591C3E765
:102ACC00044601230CFB0121F0E703AB00932A46DB
:102ADC003846104B04A9AFF30080421C0646D6D1F1
:102AEC00AB895B063FF52CAF09981DB0BDE8F08FA4
:102AFC0003AB00932A463846064B04A900F07CF839
:102B0C00EBE700BF644600086A4600086E46000802
:102B1C00000000006D2800082DE9F0471646994684
:102B2C008A680B6907469342B8BF1346336091F825
:102B3C0043200C46DDF820800AB101333360236852
:102B4C00990642BF336802333360256815F00605D9
:102B5C0006D104F1190AE36832689B1AAB4228DCEF
:102B6C0094F84320131E226818BF012392062DD41B
:102B7C004946384604F14302C047013020D023684F
:102B8C00E56803F00603042B18BF002532684FF0EC
:102B9C000006A36808BFAD1A226908BF25EAE575CF
:102BAC009342C4BF9B1AED181A34B5421AD10020B7
:102BBC0008E00123524649463846C047013003D14C
:102BCC004FF0FF30BDE8F0870135C4E73020E11845
:102BDC0081F843005A1C94F845102244023382F8C1
:102BEC004310C5E70123224649463846C047013009
:102BFC00E6D00136D9E700002DE9FF470F7E91465C
:102C0C00782F80460C469A460C9D01F1430207D85A
:102C1C00622F0AD8002F00F0D980582F00F0A48022
:102C2C0004F1420584F842703AE0A7F16303152BD6
:102C3C00F6D801A151F823F09D2C0008B12C000806
:102C4C002D2C00082D2C00082D2C00082D2C0008F4
:102C5C00B12C00082D2C00082D2C00082D2C000860
:102C6C002D2C0008BF2D0008E12C0008A12D000818
:102C7C002D2C00082D2C0008E12D00082D2C00080F
:102C8C00E12C00082D2C00082D2C0008A92D000883
:102C9C002B681A1D1B682A6004F1420584F8423027
:102CAC000123A4E020682968060601F104030AD573
:102CBC000E682B60002E03DA2D23764284F8433005
:102CCC000A235E4819E00E6810F0400F2B6018BF05
:102CDC0036B2EFE72B682068191D2960010601D573
:102CEC001E6802E04606FBD51E886F2F0CBF08231A
:102CFC000A235248002184F843106568002DA8BFB0
:102D0C002168A560A4BF21F0040121600EB9002D3B
:102D1C004DD01546B6FBF3F103FB1167C75D05F803
:102D2C00017D3746BB420E46F4D9082B0BD12368E4
:102D3C00DE0708D5236961689942DEBF302305F8A8
:102D4C00013C05F1FF35521B22614B4621464046A2
:102D5C00CDF800A003AAFFF7DFFE01304CD14FF0F5
:102D6C00FF3004B0BDE8F087344881F8457029681D
:102D7C00236851F8046B29601D0614D5DF0744BF86
:102D8C0043F0200323601EB9236823F02003236043
:102D9C001023AFE7236843F02003236078232848EF
:102DAC0084F84530E3E7590648BFB6B2E6E7154666
:102DBC00BBE72B682668181D6169286035061B68FF
:102DCC0001D5196002E07006FBD519800023154669
:102DDC002361BAE72B6800211A1D2A601D686268FE
:102DEC00284600F02FF808B1401B6060636823612F
:102DFC00002384F84330A8E72A4649464046236915
:102E0C00D0470130ABD023689B0713D4E068039BF9
:102E1C009842B8BF1846A4E70123324649464046BB
:102E2C00D04701309BD00135E36803995B1AAB4264
:102E3C00F2DCEBE7002504F11906F5E7754600080E
:102E4C0086460008034610B5C9B2024493421846A0
:102E5C0001D1002003E0047801338C42F6D110BD7F
:102E6C00884210B501EB020402D98442234607D8EC
:102E7C00431EA14208D011F8012B03F8012FF8E7EB
:102E8C00014602448A4200D110BD13F8014D02F8EC
:102E9C00014DF7E738B50546002940D051F8043C00
:102EAC000C1F002BB8BFE41800F010F91C4A136873
:102EBC0033B9636014602846BDE8384000F00CB9A3
:102ECC00A34208D9206821188B4201BF19685B689E
:102EDC0009182160EDE71A465B680BB1A342FAD9D9
:102EEC0011685018A0420BD120680144501883423D
:102EFC001160E0D118685B68014411605360DAE737
:102F0C0002D90C232B60D6E7206821188B4201BF15
:102F1C0019685B680918216063605460CBE738BDA1
:102F2C00F804002070B50E4E0C463168054611B9F8
:102F3C0000F0BCF830602146284600F0B7F8431C7E
:102F4C000AD0C41C24F00304A04207D0211A28463E
:102F5C0000F0ACF8013001D14FF0FF34204670BDC9
:102F6C00FC0400202DE9F041CD1C25F003050835AB
:102F7C000C2D38BF0C25002D074601DBA94205D9C5
:102F8C000C2300263B603046BDE8F0812E4E00F04D
:102F9C009DF833681C4634BB29463846FFF7C2FF00
:102FAC00431C04464DD134682646002E40D123687C
:102FBC003146384604EB030800F078F880453AD1E6
:102FCC00216803356D1A25F0030508350C2D38BF23
:102FDC000C2538462946FFF7A5FF01302BD0236876
:102FEC002B4423600EE02268521B1ED40B2A16D9E8
:102FFC006119A342256018BF5960636808BF31602E
:10300C0062514B60384604F10B0600F065F826F06F
:10301C000706231DF21AB6D09B1BA350B3E76268B8
:10302C00A3420CBF32605A60ECE723466468B2E7F7
:10303C0034467668B9E70C2338463B6000F04CF810
:10304C00A1E72560DEE700BFF80400202DE9F04180
:10305C00804614460E4621B91146BDE8F041FFF7F3
:10306C0081BF2AB9FFF716FF25462846BDE8F08137
:10307C0000F038F88442074602D8B4EB500F12D84F
:10308C0021464046FFF76EFF05460028EDD0BC42B6
:10309C002246314628BF3A46FFF792FB314640465E
:1030AC00FFF7F8FEE1E73546DFE7000038B500230F
:1030BC00054D044608462B6000F01EF8431C02D157
:1030CC002B6803B1236038BD00050020014800F0D7
:1030DC0011B800BF04050020014800F00CB800BF77
:1030EC000405002051F8043C181F002BBCBF0B58E2
:1030FC00C018704770477047044A05491368002B85
:10310C0008BF0B461844106018467047080500208D
:10311C0010050020F8B500BFF8BC08BC9E467047EF
:0C312C00F8B500BFF8BC08BC9E46704718
:1031380002030405060708090A0B0C0D0E0F1010F0
:103148000102000002030405060708090A0B0C0D1A
:103158000E0F101001020000000000000000000027
:103168000102030406070809000000000102030425
:103178000D0A56454E444F525F49443A2025642C67
:10318800204D4F44554C455F49443A202564202D35
:10319800204442475F4D53473A3E20506572666F60
:1031A800726D696E672053572072657365742E209F
:1031B8002D2D204E6F2052657475726E0000000030
:1031C8000D0A56454E444F525F49443A2025642C17
:1031D800204D4F44554C455F49443A202564202DE5
:1031E800204442475F4D53473A3E20496E76616C12
:1031F800696420617267756D656E74730000000004
:103208000D0A56454E444F525F49443A2025642CD6
:10321800204D4F44554C455F49443A202564202DA4
:10322800204442475F4D53473A3E20704172675FE2
:10323800745061636B65742D3E5061636B657454A3
:103248007970653A202558000D0A56454E444F526C
:103258005F49443A2025642C204D4F44554C455F26
:1032680049443A202564202D204442475F4D534766
:103278003A3E20704172675F745061636B65742DCC
:103288003E436F6D6D616E643A2025580000000062
:103298000D0A56454E444F525F49443A2025642C46
:1032A800204D4F44554C455F49443A202564202D14
:1032B800204442475F4D53473A3E20704172675F52
:1032C800745061636B65742D3E446174614C656E26
:1032D8006774683A202558000D0A56454E444F52E7
:1032E8005F49443A2025642C204D4F44554C455F96
:1032F80049443A202564202D204442475F4D5347D6
:103308003A3E20704172675F745061636B65742D3B
:103318003E4461746143524333323A2025580000D9
:103328000D0A56454E444F525F49443A2025642CB5
:10333800204D4F44554C455F49443A202564202D83
:10334800204442475F4D53473A3E20704172675FC1
:10335800745061636B65742D3E5061636B65744393
:10336800524333323A202558000000000D0A5645D2
:103378004E444F525F49443A2025642C204D4F4417
:10338800554C455F49443A202564202D2044424746
:103398005F4D53473A3E20494E56414C49442041DF
:1033A8007267756D656E742056616C756573000083
:1033B8000D0A56454E444F525F49443A2025642C25
:1033C800204D4F44554C455F49443A202564202DF3
:1033D800204442475F4D53473A3E2070697065204C
:1033E8006563686F206973206E6F74206F6B2E00A1
:1033F8000D0A56454E444F525F49443A2025642CE5
:10340800204D4F44554C455F49443A202564202DB2
:10341800204442475F4D53473A3E2070697065200B
:103428006563686F207375636365656465642E0002
:103438000D0A56454E444F525F49443A2025642CA4
:10344800204D4F44554C455F49443A202564202D72
:10345800204442475F4D53473A3E2053656E7420DF
:103468004E61636B207375636365737366756C6C0B
:10347800790000000D0A56454E444F525F49443AC0
:103488002025642C204D4F44554C455F49443A2033
:103498002564202D204442475F4D53473A3E205330
:1034A800656E742041636B2073756363657373661F
:1034B800756C6C79000000005468697320626F6F46
:1034C800746C6F61646572206973206D6164652036
:1034D8006279204D6F68616D65642041736872611F
:1034E8006620577820436F7079726967687420285E
:1034F800432920577820496E632C2032303233001C
:103508000D0A56454E444F525F49443A2025642CD3
:10351800204D4F44554C455F49443A202564202DA1
:10352800204442475F4D53473A3E2053656E74200E
:1035380074686520626F6F746C6F61646572207661
:10354800657273696F6E20737563636573736675EF
:103558006C6C792E000000000D0A56454E444F52FF
:103568005F49443A2025642C204D4F44554C455F13
:1035780049443A202564202D204442475F4D534753
:103588003A3E2053656E742074686520626F6F74CC
:103598006C6F6164657220636F6D6D616E6473201A
:1035A80068656C706572207375636365737366759F
:1035B8006C6C792E000000000D0A56454E444F529F
:1035C8005F49443A2025642C204D4F44554C455FB3
:1035D80049443A202564202D204442475F4D5347F3
:1035E8003A3E20496E76616C696420666C61736846
:1035F800206572617365206F7065726174696F6EA2
:10360800000000000D0A56454E444F525F49443AA7
:103618002025642C204D4F44554C455F49443A20A1
:103628002564202D204442475F4D53473A3E20539E
:10363800656C6563746564206D6173732065726180
:10364800736500000D0A56454E444F525F49443A8F
:103658002025642C204D4F44554C455F49443A2061
:103668002564202D204442475F4D53473A3E20535E
:10367800656C656374656420706167652065726157
:1036880073652028706167653A2025642C206E6F69
:10369800703A2025642900000D0A56454E444F52C1
:1036A8005F49443A2025642C204D4F44554C455FD2
:1036B80049443A202564202D204442475F4D534712
:1036C8003A3E205061676520696E646578696720B5
:1036D80077656E7420746F20666174616C20657202
:1036E800726F722E2053594E4320535455434B004A
:1036F8000D0A56454E444F525F49443A2025642CE2
:10370800204D4F44554C455F49443A202564202DAF
:10371800204442475F4D53473A3E2043414E4F5461
:103728002053454C46205445524D494E415445205E
:1037380054484520424F4F544C4F4144455220462F
:1037480049524D5741524521000000000D0A564587
:103758004E444F525F49443A2025642C204D4F4433
:10376800554C455F49443A202564202D2044424762
:103778005F4D53473A3E20466C617368206572611D
:1037880073696E6720737461727465640000000069
:103798000D0A56454E444F525F49443A2025642C41
:1037A800204D4F44554C455F49443A202564202D0F
:1037B800204442475F4D53473A3E20446F6E652090
:1037C800666C6173682065726173696E67000000DA
:1037D8000D0A56454E444F525F49443A2025642C01
:1037E800204D4F44554C455F49443A202564202DCF
:1037F800204442475F4D53473A3E20466C61736808
:103808002065726173696E67206661696C65642002
:103818006F6E207061676520616464723A2025705C
:10382800000000000D0A56454E444F525F49443A85
:103838002025642C204D4F44554C455F49443A207F
:103848002564202D204442475F4D53473A3E20458A
:1038580072726F72207769746820666C6173682071
:103868006C6F636B696E67000D0A56454E444F5284
:103878005F49443A2025642C204D4F44554C455F00
:1038880049443A202564202D204442475F4D534740
:103898003A3E204572726F72207769746820666CB0
:1038A8006173682065726173696E67000D0A564519
:1038B8004E444F525F49443A2025642C204D4F44D2
:1038C800554C455F49443A202564202D2044424701
:1038D8005F4D53473A3E204572726F722077697484
:1038E8006820666C61736820756E6C6F636B696EB7
:1038F800670000000D0A56454E444F525F49443A4E
:103908002025642C204D4F44554C455F49443A20AE
:103918002564202D204442475F4D53473A3E2046B8
:103928006C6173682065726173696E672065727275
:103938006F7200000D0A56454E444F525F49443A93
:103948002025642C204D4F44554C455F49443A206E
:103958002564202D204442475F4D53473A3E204678
:103968006C6173682065726173696E672073756333
:1039780063656564656400000D0A56454E444F5200
:103988005F49443A2025642C204D4F44554C455FEF
:1039980049443A202564202D204442475F4D53472F
:1039A8003A3E2057726974696E6720255820746FF3
:1039B8002061646472657373202570000D0A564592
:1039C8004E444F525F49443A2025642C204D4F44C1
:1039D800554C455F49443A202564202D20444247F0
:1039E8005F4D53473A3E204572726F722077726975
:1039F80074696E672030782530345820746F2066DB
:103A08006C6173682061646472657373202570004B
:103A18000D0A56454E444F525F49443A2025642CBE
:103A2800204D4F44554C455F49443A202564202D8C
:103A3800204442475F4D53473A3E20577269747499
:103A4800656E2030782530345820746F20616464A6
:103A5800726573732025702073756363657373666D
:103A6800756C6C79000000000D0A56454E444F52A3
:103A78005F49443A2025642C204D4F44554C455FFE
:103A880049443A202564202D204442475F4D53473E
:103A98003A3E20496E76616C696420777269746574
:103AA800206D656D6F727920616464726573733A15
:103AB80020257020000000000D0A56454E444F5244
:103AC8005F49443A2025642C204D4F44554C455FAE
:103AD80049443A202564202D204442475F4D5347EE
:103AE8003A3E2057726974696E6720746F206D655D
:103AF8006D6F7279206572726F7200000D0A5645FB
:103B08004E444F525F49443A2025642C204D4F447F
:103B1800554C455F49443A202564202D20444247AE
:103B28005F4D53473A3E205772697474656E20742E
:103B38006F206D656D6F7279000000000D0A5645A3
:103B48004E444F525F49443A2025642C204D4F443F
:103B5800554C455F49443A202564202D204442476E
:103B68005F4D53473A3E2053756363657366756CC2
:103B78006C79206A756D70656420746F206170704F
:103B88006C69636174696F6E2E0000000D0A5645FA
:103B98004E444F525F49443A2025642C204D4F44EF
:103BA800554C455F49443A202564202D204442471E
:103BB8005F4D53473A3E20496E76616C69642061D7
:103BC80070706C69636174696F6E2061646472659A
:103BD800737300000D0A56454E444F525F49443AEC
:103BE8002025642C204D4F44554C455F49443A20CC
:103BF8002564202D204442475F4D53473A3E2045D7
:103C08007865637574696E6720436F6D6D616E6466
:103C18003A2043424C505F4745545F494E464F5FF8
:103C2800434D44000D0A56454E444F525F49443AAD
:103C38002025642C204D4F44554C455F49443A207B
:103C48002564202D204442475F4D53473A3E204586
:103C58007865637574696E6720436F6D6D616E6416
:103C68003A2043424C5F4745545F5645525F434DA7
:103C7800440000000D0A56454E444F525F49443AED
:103C88002025642C204D4F44554C455F49443A202B
:103C98002564202D204442475F4D53473A3E204536
:103CA8007865637574696E6720436F6D6D616E64C6
:103CB8003A2043424C5F4745545F48454C505F4368
:103CC8004D4400000D0A56454E444F525F49443A50
:103CD8002025642C204D4F44554C455F49443A20DB
:103CE8002564202D204442475F4D53473A3E2045E6
:103CF8007865637574696E6720436F6D6D616E6476
:103D08003A2043424C5F4745545F4349445F434D23
:103D1800440000000D0A56454E444F525F49443A4C
:103D28002025642C204D4F44554C455F49443A208A
:103D38002564202D204442475F4D53473A3E204595
:103D48007865637574696E6720436F6D6D616E6425
:103D58003A2043424C5F4745545F5244505F5354A6
:103D6800415455535F434D44000000000D0A564529
:103D78004E444F525F49443A2025642C204D4F440D
:103D8800554C455F49443A202564202D204442473C
:103D98005F4D53473A3E20457865637574696E6791
:103DA80020436F6D6D616E643A2043424C5F474F0C
:103DB8005F544F5F414444525F434D44000000004C
:103DC8000D0A56454E444F525F49443A2025642C0B
:103DD800204D4F44554C455F49443A202564202DD9
:103DE800204442475F4D53473A3E20457865637506
:103DF80074696E6720436F6D6D616E643A2043424B
:103E08004C5F464C4153485F45524153455F434DD3
:103E1800440000000D0A56454E444F525F49443A4B
:103E28002025642C204D4F44554C455F49443A2089
:103E38002564202D204442475F4D53473A3E204594
:103E48007865637574696E6720436F6D6D616E6424
:103E58003A2043424C5F4D454D5F57524954455FA8
:103E6800434D44000D0A56454E444F525F49443A6B
:103E78002025642C204D4F44554C455F49443A2039
:103E88002564202D204442475F4D53473A3E204544
:103E98007865637574696E6720436F6D6D616E64D4
:103EA8003A2043424C5F454E5F525F575F50524F36
:103EB800544543545F434D44000000000D0A5645E5
:103EC8004E444F525F49443A2025642C204D4F44BC
:103ED800554C455F49443A202564202D20444247EB
:103EE8005F4D53473A3E20457865637574696E6740
:103EF80020436F6D6D616E643A2043424C5F4745C5
:103F0800545F43424C5F4D454D5F524541445F43CA
:103F18004D445645525F434D440000000D0A564536
:103F28004E444F525F49443A2025642C204D4F445B
:103F3800554C455F49443A202564202D204442478A
:103F48005F4D53473A3E20457865637574696E67DF
:103F580020436F6D6D616E643A2043424C5F4F544D
:103F6800505F524541445F434D4400000D0A564599
:103F78004E444F525F49443A2025642C204D4F440B
:103F8800554C455F49443A202564202D204442473A
:103F98005F4D53473A3E20457865637574696E678F
:103FA80020436F6D6D616E643A2043424C5F444913
:103FB800535F525F575F50524F544543545F434DD0
:103FC800440000000D0A56454E444F525F49443A9A
:103FD8002025642C204D4F44554C455F49443A20D8
:103FE8002564202D204442475F4D53473A3E2045E3
:103FF8007865637574696E6720436F6D6D616E6473
:104008003A2043424C5F524541445F534543544F25
:10401800525F535441545553000000000D0A564551
:104028004E444F525F49443A2025642C204D4F445A
:10403800554C455F49443A202564202D2044424789
:104048005F4D53473A3E20457865637574696E67DE
:1040580020436F6D6D616E643A2043424C5F535745
:104068005F524553455400000D0A56454E444F5281
:104078005F49443A2025642C204D4F44554C455FF8
:1040880049443A202564202D204442475F4D534738
:104098003A3E20556E6B6F776E2072656365697660
:1040A800656420636F6D6D616E6400000D0A56458E
:1040B8004E444F525F49443A2025642C204D4F44CA
:1040C800554C455F49443A202564202D20444247F9
:1040D8005F4D53473A3E20436F6D6D616E64204CCF
:1040E800697374656E696E672053746172742070A9
:1040F8006970653A202564207C20747970653A20BF
:1041080025640A000D0A56454E444F525F49443A09
:104118002025642C204D4F44554C455F49443A2096
:104128002564202D204442475F4D53473A3E20578F
:1041380061697473696E6720666F722074686520A0
:104148007061636B6574206C656E6774682E00001F
:104158000D0A56454E444F525F49443A2025642C77
:10416800204D4F44554C455F49443A202564202D45
:10417800204442475F4D53473A3E205468652070BB
:10418800697065206C6973746E6572206973206E3E
:104198006F74206F6B2E00000D0A56454E444F5227
:1041A8005F49443A2025642C204D4F44554C455FC7
:1041B80049443A202564202D204442475F4D534707
:1041C8003A3E2057616974696E6720666F72207481
:1041D8006865207061636B65742077697468206C0A
:1041E800656E67746820282564292E000D0A5645D7
:1041F8004E444F525F49443A2025642C204D4F4489
:10420800554C455F49443A202564202D20444247B7
:104218005F4D53473A3E20546865207069706520A9
:104228006C6973746E65722072656365697665641E
:104238002061207061636B657420737563636573B7
:104248007366756C6C792E000D0A56454E444F52B4
:104258005F49443A2025642C204D4F44554C455F16
:1042680049443A202564202D204442475F4D534756
:104278003A3E2043616C63756C6174696E672043D4
:104288005243333220666F72207061636B6574002D
:104298000D0A56454E444F525F49443A2025642C36
:1042A800204D4F44554C455F49443A202564202D04
:1042B800204442475F4D53473A3E2043616C637543
:1042C8006C6174656420435243333220666F7220F8
:1042D8007061636B65743A20255800000D0A5645D5
:1042E8004E444F525F49443A2025642C204D4F4498
:1042F800554C455F49443A202564202D20444247C7
:104308005F4D53473A3E2056616C696420435243DF
:10431800333220666F72207061636B657400000031
:104328000D0A56454E444F525F49443A2025642CA5
:10433800204D4F44554C455F49443A202564202D73
:10434800204442475F4D53473A3E20496E76616CA0
:10435800696420435243333220666F722070616370
:104368006B6574000D0A56454E444F525F49443AF6
:104378002025642C204D4F44554C455F49443A2034
:104388002564202D204442475F4D53473A3E204341
:10439800616C63756C6174696E6720435243333294
:1043A80020666F7220646174610000000D0A564532
:1043B8004E444F525F49443A2025642C204D4F44C7
:1043C800554C455F49443A202564202D20444247F6
:1043D8005F4D53473A3E2043616C63756C61746569
:1043E8006420435243333220666F722064617461E3
:1043F8003A202558000000000D0A56454E444F52F9
:104408005F49443A2025642C204D4F44554C455F64
:1044180049443A202564202D204442475F4D5347A4
:104428003A3E2056616C6964204352433332206619
:104438006F72207061636B65742064617461000041
:104448000D0A56454E444F525F49443A2025642C84
:10445800204D4F44554C455F49443A202564202D52
:10446800204442475F4D53473A3E20496E76616C7F
:10447800696420435243333220666F72207061634F
:104488006B65742064617461000000000D0A564574
:104498004E444F525F49443A2025642C204D4F44E6
:1044A800554C455F49443A202564202D2044424715
:1044B8005F4D53473A3E20436F6D6D616E642065D2
:1044C8007865637574696F6E206572726F7200002B
:1044D8000D0A56454E444F525F49443A2025642CF4
:1044E800204D4F44554C455F49443A202564202DC2
:1044F800204442475F4D53473A3E20436F6D6D61FC
:104508006E6420657865637574696F6E20646F6E7C
:10451800650000000D0A56454E444F525F49443A23
:104528002025642C204D4F44554C455F49443A2082
:104538002564202D204442475F4D53473A3E205082
:1045480061636B6574206572726F722C20496E7698
:10455800616C6964207061636B6574206461746167
:1045680020435243333200000D0A56454E444F5201
:104578005F49443A2025642C204D4F44554C455FF3
:1045880049443A202564202D204442475F4D534733
:104598003A3E205061636B6574206572726F722CAD
:1045A80020496E76616C6964207061636B65742064
:1045B80043524333320000000D0A56454E444F52D1
:1045C8005F49443A2025642C204D4F44554C455FA3
:1045D80049443A202564202D204442475F4D5347E3
:1045E8003A3E205374617274656420746865206271
:1045F8006F6F74206D616E61676572000D0A5645B4
:104608004E444F525F49443A2025642C204D4F4474
:10461800554C455F49443A202564202D20444247A3
:104628005F4D53473A3E20496E76616C696420615C
:1046380070706C69636174696F6E2C20776169743E
:10464800696E6720666F7220612076616C696420EC
:104658006170706C69636174696F6E00232D302B13
:104668002000686C4C00656667454647003031326B
:1046780033343536373839414243444546003031C2
:104688003233343536373839616263646566000021
:0446980031010008E4
:04469C000D01000804
:1046A00001000000100000000024F40001000000E0
:1046B000000102030405060708090A0B00000000B8
:1046C00024000020000000000000000000000000A6
:1046D00000000000000000000000000000000000DA
:1046E00000000000000000000000000000000000CA
:1046F00000000000000000000000000000000000BA
:1047000000000000000000000000000000000000A9
:104710000000000000000000000000000000000099
:044720000000000095
:04000005080027398F
:00000001FF
